:100000000C945D000C9485000C9485000C94930670
:100010000C9456050C9400050C9485000C948500F6
:100020000C9485000C9485000C9485000C9485003C
:100030000C9485000C9485000C9485000C9485002C
:100040000C945E040C9485000C94CE040C94A804CB
:100050000C9485000C9485000C9485000C9485000C
:100060000C9485000C9485000000000024002700FB
:100070002A0000000000250028002B0004040404CE
:100080000404040402020202020203030303030342
:10009000010204081020408001020408102001021F
:1000A00004081020000000080002010000030407FB
:1000B0000000000000000000700711241FBECFEFF9
:1000C000D8E0DEBFCDBF11E0A0E0B1E0E6E8F2E1AC
:1000D00002C005900D92AC33B107D9F722E0ACE332
:1000E000B1E001C01D92AB31B207E1F710E0CDE500
:1000F000D0E004C02197FE010E943B09CC35D10716
:10010000C9F70E940E080C9441090C94000090E07D
:10011000FC01EC55FF4F2491FC01E057FF4F349157
:10012000FC01E458FF4FE491EE23C9F0222339F09B
:10013000233001F1A8F4213019F1223029F1F0E047
:10014000EE0FFF1FEE58FF4FA591B4918FB7F894B3
:10015000EC91611126C030953E233C938FBF0895EA
:100160002730A9F02830C9F0243049F78091800069
:100170008F7D03C0809180008F7780938000DFCFD8
:1001800084B58F7784BDDBCF84B58F7DFBCF809125
:10019000B0008F778093B000D2CF8091B0008F7D78
:1001A000F9CF3E2BDACFCF93DF9390E0FC01E057FD
:1001B000FF4F249184589F4FFC0184918823D1F0F4
:1001C00090E0880F991FFC01E859FF4FA591B49169
:1001D000FC01EE58FF4FC591D491623071F49FB786
:1001E000F8943C91822F809583238C93E8812E2B69
:1001F00028839FBFDF91CF9108958FB7F894EC913A
:100200002E2B2C938FBFF6CF1F93CF93DF93182FF6
:10021000EB0161E00E94D300209739F460E0812F68
:10022000DF91CF911F910C948700CF3FD10511F43E
:1002300061E0F5CFE12FF0E0EC55FF4FE491E330C2
:1002400031F140F4E130B1F0E230E1F0C038D105F5
:100250007CF7E4CFE73029F1E83059F1E430B1F729
:1002600080918000806280938000D0938B00C09347
:100270008A0004C084B5806884BDC7BDDF91CF917A
:100280001F91089584B5806284BDC8BDF7CF809169
:100290008000806880938000D0938900C09388009C
:1002A000EDCF8091B00080688093B000C093B30020
:1002B000E5CF8091B00080628093B000C093B4001D
:1002C000DDCFCF93C82F61E087E00E94870060E018
:1002D00088E00E9487006C2F70E086E00E94040195
:1002E000E091FD01F091FE01309711F081E08187EE
:1002F000CF910895CF93C82F61E082E00E948700DC
:1003000060E084E00E9487006C2F70E085E00E942E
:100310000401E091FD01F091FE01309711F081E0C0
:100320008087CF9108958E3008F08E50877080645A
:1003300080937C0080917A00806480937A00809121
:100340007A0086FDFCCF8091780090917900089525
:100350003FB7F89480914F0190915001A0915101C5
:10036000B091520126B5A89B05C02F3F19F0019608
:10037000A11DB11D3FBFBA2FA92F982F8827BC01FF
:10038000CD01620F711D811D911D42E0660F771F27
:10039000881F991F4A95D1F708958F929F92AF9227
:1003A000BF92CF92DF92EF92FF924B015C010E94CD
:1003B000A8016B017C010E94A8016C197D098E09BE
:1003C0009F09683E734081059105A8F321E0821AD8
:1003D0009108A108B10888EEC80E83E0D81EE11C80
:1003E000F11C81149104A104B10429F7FF90EF904E
:1003F000DF90CF90BF90AF909F908F9008952FB7D0
:10040000F89460914B0170914C0180914D01909155
:100410004E012FBF0895AF92BF92CF92DF92EF921D
:10042000FF920F931F93CF93DF936C017B018B019E
:10043000040F151FEB015E01AE18BF08C017D107EE
:1004400059F06991D601ED91FC910190F081E02D78
:10045000C6010995892B79F7C501DF91CF911F91CD
:100460000F91FF90EF90DF90CF90BF90AF900895E5
:10047000FC01538D448D252F30E0842F90E0821BAA
:10048000930B541710F0CF96089501970895FC012F
:10049000918D828D981761F0A28DAE0FBF2FB11D87
:1004A0005D968C91928D9F5F9F73928F90E00895DF
:1004B0008FEF9FEF0895FC01918D828D981731F099
:1004C000828DE80FF11D858D90E008958FEF9FEFED
:1004D0000895FC01918D228D892F90E0805C9F4FC3
:1004E000821B91098F739927089583E591E00E94FB
:1004F000690221E0892B09F420E0822F089580E031
:1005000090E0892B29F00E94750281110C94000063
:100510000895FC01A48DA80FB92FB11DA35ABF4F98
:100520002C91848D90E001968F739927848FA689F2
:10053000B7892C93A089B1898C91837080648C9346
:10054000938D848D981306C00288F389E02D8081F5
:100550008F7D80830895EF92FF920F931F93CF9327
:10056000DF93EC0181E0888F9B8D8C8D98131AC0EE
:10057000E889F989808185FF15C09FB7F894EE89D5
:10058000FF896083E889F989808183708064808332
:100590009FBF81E090E0DF91CF911F910F91FF907D
:1005A000EF900895F62E0B8D10E00F5F1F4F0F7325
:1005B0001127E02E8C8D8E110CC00FB607FCFACFE0
:1005C000E889F989808185FFF5CFCE010E948902F3
:1005D000F1CFEB8DEC0FFD2FF11DE35AFF4FF082B1
:1005E0009FB7F8940B8FEA89FB8980818062CFCF17
:1005F000CF93DF93EC01888D8823B9F0AA89BB895A
:10060000E889F9898C9185FD03C0808186FD0DC044
:100610000FB607FCF7CF8C9185FFF2CF808185FF65
:10062000EDCFCE010E948902E9CFDF91CF910895ED
:1006300020E001972FEF8F3F9207D9F70895CF92CF
:10064000DF92EF92FF92CF93DF93E82FF0E0ED502F
:10065000FE4F8081823009F442C050F4813009F4A9
:1006600096C0DF91CF91FF90EF90DF90CF900895EB
:10067000833009F460C08430A1F780911300909119
:1006800014000E941803C8E0D0E0809115009091FA
:1006900016000E941803E0910E00F0910F00808177
:1006A000219799F780911700909118000E941803E4
:1006B000809145012091440190E001968F73992724
:1006C0002817190609F46CC08091450180914501F5
:1006D00090E001968F73992780934501C2CFC09017
:1006E0004001D0904101E0904201F09043010E940E
:1006F000A80122E3C20ED11CE11CF11CC616D706CC
:10070000E806F90608F0ADCFE091FD01F091FE0199
:100710008085082E000C990BAA0BBB0B40815181E0
:1007200062817381840F951FA61FB71F80839183F9
:10073000A283B38396CFC0904601D0904701E0904A
:100740004801F09049010E94A801E2E3CE0ED11CBD
:10075000E11CF11CC616D706E806F90608F081CFA1
:10076000E091FD01F091FE018185082E000C990BAE
:10077000AA0BBB0B4481558166817781840F951F3D
:10078000A61FB71F84839583A683B7836ACFF0E043
:10079000E0E0DF91CF91FF90EF90DF90CF90099450
:1007A00080911B00816080931B005BCFFC01019056
:1007B0000020E9F73197AF01481B590BBC0183E5D5
:1007C00091E00C940B028F929F92AF92BF92CF92C6
:1007D000DF92EF92FF920F931F93CF93DF93CDB7EA
:1007E000DEB7A1970FB6F894DEBF0FBECDBF6B0189
:1007F0007C01F7FE41C06DE283E591E00E94AB020F
:100800008C0122273327A9012C193D094E095F09C4
:1008100019A2CE0181967C019AE0892E912CA12CFF
:10082000B12CCA01B901A50194010E941909605DAA
:10083000F70162937F01211531054105510589F7C3
:1008400090E080E0309719F0CF010E94D603800F2E
:10085000911FA1960FB6F894DEBF0FBECDBFDF91FA
:10086000CF911F910F91FF90EF90DF90CF90BF90AD
:10087000AF909F908F900895AC019B0119A28E01BB
:100880000F5D1F4F8AE0C82ED12CE12CF12CCA013C
:10089000B901A70196010E941909605DF8016293F0
:1008A0008F01211531054105510589F790E080E060
:1008B000309779F2CF010E94D603CBCF1F920F92CF
:1008C0000FB60F9211242F933F938F939F93AF9363
:1008D000BF9380914B0190914C01A0914D01B0913B
:1008E0004E0130914A0123E0230F2D3758F5019630
:1008F000A11DB11D20934A0180934B0190934C019F
:10090000A0934D01B0934E0180914F019091500101
:10091000A0915101B09152010196A11DB11D80938A
:100920004F0190935001A0935101B0935201BF9198
:10093000AF919F918F913F912F910F900FBE0F908C
:100940001F90189526E8230F0296A11DB11DD2CF46
:100950001F920F920FB60F9211242F933F934F9334
:100960005F936F937F938F939F93AF93BF93EF9317
:10097000FF9383E591E00E948902FF91EF91BF917F
:10098000AF919F918F917F916F915F914F913F9127
:100990002F910F900FBE0F901F9018951F920F92DE
:1009A0000FB60F9211242F938F939F93EF93FF9382
:1009B000E0916301F09164018081E0916901F0911F
:1009C0006A0182FD1BC0908180916C018F5F8F73E3
:1009D00020916D01821741F0E0916C01F0E0ED5A39
:1009E000FE4F958F80936C01FF91EF919F918F91B6
:1009F0002F910F900FBE0F901F9018958081F4CF0C
:100A00001F920F920FB60F9211242F933F934F9383
:100A10005F936F937F938F939F93AF93BF93CF9386
:100A2000EF93FF93C9B18091F101C8238091020136
:100A300083FF19C0C3FD17C086E00E941F03C09347
:100A40000201FF91EF91CF91BF91AF919F918F9153
:100A50007F916F915F914F913F912F910F900FBEBA
:100A60000F901F9018958091020183FDE8CFC3FF7E
:100A7000E6CF8091F901823051F40E94FF0160932A
:100A80004001709341018093420190934301809112
:100A9000F9018330A1F60E94FF0160934601709333
:100AA00047018093480190934901C9CF1F920F924B
:100AB0000FB60F9211242F933F934F935F936F9331
:100AC0007F938F939F93AF93BF93CF93EF93FF93B6
:100AD000C6B18091F201C8238091010180FF4BC013
:100AE000C0FD49C080E00E941F038091010181FF89
:100AF00002C0C1FF64C08091010181FF64C0809188
:100B0000010182FF02C0C2FF7EC08091010182FF0D
:100B10007EC08091010183FF02C0C3FF98C0809115
:100B2000010183FF98C08091010184FF02C0C4FFCE
:100B3000B2C08091010184FFB2C08091010185FFA4
:100B400002C0C5FFCCC08091010185FFCCC0C0931D
:100B50000101FF91EF91CF91BF91AF919F918F9143
:100B60007F916F915F914F913F912F910F900FBEA9
:100B70000F901F9018958091010180FDB6CFC0FFA6
:100B8000B4CF8091F301823051F40E94FF01609351
:100B90004001709341018093420190934301809101
:100BA000F301833009F0A1CF0E94FF016093460159
:100BB00070934701809348019093490196CF81E05B
:100BC0000E941F039CCFC1FF9ACF8091F401823015
:100BD00051F40E94FF0160934001709341018093A2
:100BE0004201909343018091F401833009F087CF53
:100BF0000E94FF0160934601709347018093480172
:100C0000909349017CCF82E00E941F0382CFC2FFF4
:100C100080CF8091F501823051F40E94FF016093F2
:100C20004001709341018093420190934301809170
:100C3000F501833009F06DCF0E94FF0160934601FA
:100C400070934701809348019093490162CF83E0FC
:100C50000E941F0368CFC3FF66CF8091F6018230E8
:100C600051F40E94FF016093400170934101809311
:100C70004201909343018091F601833009F053CFF4
:100C80000E94FF01609346017093470180934801E1
:100C90009093490148CF84E00E941F034ECFC4FFC8
:100CA0004CCF8091F701823051F40E94FF01609394
:100CB00040017093410180934201909343018091E0
:100CC000F701833009F039CF0E94FF01609346019C
:100CD0007093470180934801909349012ECF85E09E
:100CE0000E941F0334CFC5FF32CF8091F8018230BC
:100CF00051F40E94FF016093400170934101809381
:100D00004201909343018091F801833009F01FCF95
:100D10000E94FF0160934601709347018093480150
:100D20009093490114CF1F920F920FB60F92112486
:100D30002F933F934F935F936F937F938F939F93E3
:100D4000AF93BF93CF93EF93FF93C3B18091F00123
:100D5000C8238091000181FF2DC0C1FD2BC087E019
:100D60000E941F038091000182FF02C0C2FF54C095
:100D70008091000182FF54C08091000183FF02C076
:100D8000C3FF7CC08091000182FF7CC0C093000142
:100D9000FF91EF91CF91BF91AF919F918F917F91F3
:100DA0006F915F914F913F912F910F900FBE0F90D8
:100DB0001F9018958091000181FDD4CFC1FFD2CF43
:100DC0008091FA01823051F40E94A80160934001A1
:100DD0007093410180934201909343018091FA0105
:100DE000833051F40E94A80160934601709347013B
:100DF00080934801909349018091FA01813009F074
:100E0000B1CF0E94FF0160933C0170933D0180933C
:100E10003E0190933F01A6CF88E00E941F03ACCF14
:100E2000C2FFAACF8091FB01823051F40E94A80139
:100E3000609340017093410180934201909343017C
:100E40008091FB01833051F40E94A8016093460118
:100E50007093470180934801909349018091FB0171
:100E6000813009F089CF0E94FF0160933C017093AB
:100E70003D0180933E0190933F017ECF89E00E9427
:100E80001F0384CFC2FF82CF8091FC01823051F4D6
:100E90000E94A80160934001709341018093420138
:100EA000909343018091FC01833051F40E94A8018A
:100EB00060934601709347018093480190934901E4
:100EC0008091FC01813009F061CF0E94FF016093A5
:100ED0003C0170933D0180933E0190933F0156CFBA
:100EE000CF93DF93E3E5F1E01382128288EE93E083
:100EF000A0E0B0E084839583A683B78387E091E088
:100F00009183808385EC90E09587848784EC90E0E2
:100F10009787868780EC90E0918B808B81EC90E0C6
:100F2000938B828B82EC90E0958B848B86EC90E0A7
:100F3000978B868B118E128E138E148EE5E1F2E064
:100F400081E190E0918380838FEF9FEF9383828391
:100F500095838483EFE0F2E024E130E03183208365
:100F60009383828395838483E9E0F2E025E130E096
:100F700031832083938382839583848362E080E13D
:100F80000E94D30062E08AE00E94D300ECE6F0E029
:100F9000808184608083E8E6F0E0808182608083E5
:100FA000A3EFB1E082E012968C9312978091F20148
:100FB00084608093F201CBE6D0E0888184608883EE
:100FC00080818160808383E018968C938091F0010A
:100FD00084608093F001EFEFF1E0108211821282C1
:100FE00013821482158216821782F093FE01E09319
:100FF000FD0181E08087818761E087E00E94D30066
:1010000061E088E00E94D30061E082E00E94D300AA
:1010100061E084E0DF91CF910C94D300789484B5A3
:10102000826084BD84B5816084BD85B5826085BDE4
:1010300085B5816085BD80916E00816080936E0072
:101040001092810080918100826080938100809164
:101050008100816080938100809180008160809315
:1010600080008091B10084608093B1008091B000D5
:1010700081608093B00080917A00846080937A00D0
:1010800080917A00826080937A0080917A008160FA
:1010900080937A0080917A00806880937A00109221
:1010A000C100E0916301F091640182E08083E091EE
:1010B0005F01F09160011082E0916101F0916201A5
:1010C00080E1808310926B01E0916701F0916801EB
:1010D00086E08083E0916501F09166018081806106
:1010E0008083E0916501F091660180818860808352
:1010F000E0916501F0916601808180688083E091D4
:101100006501F091660180818F7D80831092FF01DF
:101110001092000210920102109202021092030239
:1011200010920402109205021092060285E191E0ED
:101130000E94D60385E291E00E94D60360910302EB
:101140007091040280910502909106020E94E303CF
:1011500088E291E00E94D6036091FF017091000245
:1011600080910102909102020E94E30388E291E0E3
:101170000E94D60385E291E00E94D6038AE291E0C4
:101180000E94D60385E291E00E94D6038091150269
:101190000E949301BC01990F880B990B0E94E303F5
:1011A00088E291E00E94D60380910F020E94930191
:1011B000BC01990F880B990B0E94E30388E291E030
:1011C0000E94D603809109020E949301BC01990FED
:1011D000880B990B0E94E30385E291E00E94D603FD
:1011E0001092FF011092000210920102109202026E
:1011F000109203021092040210920502109206024D
:1012000064E670E080E090E00E94CD018FE50E94EE
:101210007A018FE50E9461018FE50E947A018FE5D6
:101220000E94610162E370E080E090E00E94CD01E5
:101230007DCFA1E21A2EAA1BBB1BFD010DC0AA1F68
:10124000BB1FEE1FFF1FA217B307E407F50720F02F
:10125000A21BB30BE40BF50B661F771F881F991FAA
:101260001A9469F760957095809590959B01AC01F3
:10127000BD01CF010895EE0FFF1F0590F491E02D01
:061280000994F894FFCF71
:101286000E3F0800000000AB020B023802F80269AC
:101296000247025B02456E636F6465722056616C9D
:1012A6007565733A000D0A00090049522053656EB0
:0C12B600736F722056616C7565733A000E
:00000001FF
