:020000040000FA
:100000000C9474000C949C000C949C000C94760945
:100010000C9439080C94E3070C949C000C949C00FD
:100020000C949C000C949C000C949C000C949C00E0
:100030000C949C000C949C000C949C000C949C00D0
:100040000C9441070C949C000C94B1070C948B0702
:100050000C949C000C949C000C949C000C949C00B0
:100060000C949C000C949C00084AD73B3BCE016E3C
:1000700084BCBFFDC12F3D6C74319ABD56833DDAFF
:100080003D00C77F11BED9E4BB4C3E916BAAAABE0E
:10009000000000803F0000000000240027002A002C
:1000A00000000000250028002B00040404040404C0
:1000B0000404020202020202030303030303010217
:1000C00004081020408001020408102001020408E6
:1000D00010200000000800020100000304070000D7
:1000E0000000000000009B0A11241FBECFEFD8E0E3
:1000F000DEBFCDBF11E0A0E0B1E0E2E8F1E202C076
:1001000005900D92AA36B107D9F722E0AAE6B1E030
:1001100001C01D92A336B207E1F710E0C4E7D0E0BA
:1001200004C02197FE010E94B910C337D107C9F757
:100130000E94730B0C94BF100C94000090E0FC0123
:10014000EE52FF4F2491FC01E254FF4F3491FC0129
:10015000E655FF4FE491EE23C9F0222339F0233016
:1001600001F1A8F4213019F1223029F1F0E0EE0F6D
:10017000FF1FE056FF4FA591B4918FB7F894EC9113
:10018000611126C030953E233C938FBF08952730E0
:10019000A9F02830C9F0243049F7809180008F7D84
:1001A00003C0809180008F7780938000DFCF84B57B
:1001B0008F7784BDDBCF84B58F7DFBCF8091B0007E
:1001C0008F778093B000D2CF8091B0008F7DF9CF30
:1001D0003E2BDACFCF93DF9390E0FC01E254FF4F48
:1001E000249186559F4FFC0184918823D1F090E0A3
:1001F000880F991FFC01EA56FF4FA591B491FC01AD
:10020000E056FF4FC591D491623071F49FB7F894D6
:100210003C91822F809583238C93E8812E2B288319
:100220009FBFDF91CF9108958FB7F894EC912E2B5B
:100230002C938FBFF6CF1F93CF93DF93182FEB0133
:1002400061E00E94EA00209739F460E0812FDF919D
:10025000CF911F910C949E00CF3FD10511F461E026
:10026000F5CFE12FF0E0EE52FF4FE491E33031F1B2
:1002700040F4E130B1F0E230E1F0C038D1057CF774
:10028000E4CFE73029F1E83059F1E430B1F780915B
:100290008000806280938000D0938B00C0938A009E
:1002A00004C084B5806884BDC7BDDF91CF911F9124
:1002B000089584B5806284BDC8BDF7CF8091800069
:1002C000806880938000D0938900C0938800EDCF30
:1002D0008091B00080688093B000C093B300E5CFF8
:1002E0008091B00080628093B000C093B400DDCFF5
:1002F000CF93C82F61E087E00E949E0060E088E015
:100300000E949E006C2F70E086E00E941B01E0912D
:100310002D02F0912E02309711F081E08187CF916C
:100320000895CF93C82F61E082E00E949E0060E0B4
:1003300084E00E949E006C2F70E085E00E941B010B
:10034000E0912D02F0912E02309711F081E080872C
:10035000CF910895CF93C82F60E082E00E949E0065
:1003600061E084E00E949E006C2F70E085E00E94B6
:100370001B01E0912D02F0912E02309711F08FEFCA
:100380008087CF91089561E087E00E949E0061E040
:1003900088E00E949E0070E060E086E00C941B0103
:1003A00061E082E00E949E0061E084E00E949E0085
:1003B00070E060E085E00C941B018E3008F08E50F8
:1003C0008770806480937C0080917A008064809341
:1003D0007A0080917A0086FDFCCF80917800909120
:1003E000790008953FB7F89480917F019091800142
:1003F000A0918101B091820126B5A89B05C02F3F35
:1004000019F00196A11DB11D3FBFBA2FA92F982F3A
:100410008827BC01CD01620F711D811D911D42E035
:10042000660F771F881F991F4A95D1F708958F92FD
:100430009F92AF92BF92CF92DF92EF92FF924B01C9
:100440005C010E94F2016B017C010E94F2016C19B7
:100450007D098E099F09683E734081059105A8F3C7
:1004600021E0821A9108A108B10888EEC80E83E045
:10047000D81EE11CF11C81149104A104B10429F7D8
:10048000FF90EF90DF90CF90BF90AF909F908F90B4
:1004900008952FB7F89460917B0170917C01809151
:1004A0007D0190917E012FBF0895AF92BF92CF92B0
:1004B000DF92EF92FF920F931F93CF93DF936C0124
:1004C0007B018B01040F151FEB015E01AE18BF0805
:1004D000C017D10759F06991D601ED91FC910190B7
:1004E000F081E02DC6010995892B79F7C501DF91CF
:1004F000CF911F910F91FF90EF90DF90CF90BF9021
:10050000AF900895FC01538D448D252F30E0842F4A
:1005100090E0821B930B541710F0CF96089501972B
:100520000895FC01918D828D981761F0A28DAE0F18
:10053000BF2FB11D5D968C91928D9F5F9F73928F9F
:1005400090E008958FEF9FEF0895FC01918D828DCB
:10055000981731F0828DE80FF11D858D90E0089598
:100560008FEF9FEF0895FC01918D228D892F90E0F0
:10057000805C9F4F821B91098F739927089583E8B0
:1005800091E00E94B30221E0892B09F420E0822F40
:10059000089580E090E0892B29F00E94BF0281112C
:1005A0000C9400000895FC01A48DA80FB92FB11D73
:1005B000A35ABF4F2C91848D90E001968F73992799
:1005C000848FA689B7892C93A089B1898C91837077
:1005D00080648C93938D848D981306C00288F38970
:1005E000E02D80818F7D80830895EF92FF920F939D
:1005F0001F93CF93DF93EC0181E0888F9B8D8C8DCF
:1006000098131AC0E889F989808185FF15C09FB7C2
:10061000F894EE89FF896083E889F9898081837085
:10062000806480839FBF81E090E0DF91CF911F9134
:100630000F91FF90EF900895F62E0B8D10E00F5F55
:100640001F4F0F731127E02E8C8D8E110CC00FB62B
:1006500007FCFACFE889F989808185FFF5CFCE01C3
:100660000E94D302F1CFEB8DEC0FFD2FF11DE35A69
:10067000FF4FF0829FB7F8940B8FEA89FB89808146
:100680008062CFCFCF93DF93EC01888D8823B9F0C0
:10069000AA89BB89E889F9898C9185FD03C080818D
:1006A00086FD0DC00FB607FCF7CF8C9185FFF2CF0A
:1006B000808185FFEDCFCE010E94D302E9CFDF918B
:1006C000CF91089520E001972FEF8F3F9207D9F740
:1006D0000895CF92DF92EF92FF92CF93DF93E82FAE
:1006E000F0E0ED5DFD4F8081823009F442C050F4AE
:1006F000813009F496C0DF91CF91FF90EF90DF90A9
:10070000CF900895833009F460C08430A1F78091C0
:100710001300909114000E946203C8E0D0E0809121
:100720001500909116000E946203E0910E00F09176
:100730000F008081219799F7809117009091180000
:100740000E946203809173012091720190E00196F2
:100750008F7399272817190609F46CC080917301CB
:100760008091730190E001968F73992780937301B4
:10077000C2CFC0906E01D0906F01E0907001F090F8
:1007800071010E94F20122E3C20ED11CE11CF11C96
:10079000C616D706E806F90608F0ADCFE0912D029F
:1007A000F0912E028085082E000C990BAA0BBB0B32
:1007B0004081518162817381840F951FA61FB71FED
:1007C00080839183A283B38396CFC0907401D0902D
:1007D0007501E0907601F09077010E94F201E2E36A
:1007E000CE0ED11CE11CF11CC616D706E806F90690
:1007F00008F081CFE0912D02F0912E028185082E24
:10080000000C990BAA0BBB0B448155816681778143
:10081000840F951FA61FB71F84839583A683B78374
:100820006ACFF0E0E0E0DF91CF91FF90EF90DF90B2
:10083000CF90099480911B00816080931B005BCF57
:10084000FC0101900020E9F73197AF01481B590BDB
:10085000BC0183E891E00C9455028F929F92AF9275
:10086000BF920F931F93CF93DF93CDB7DEB7A197BE
:100870000FB6F894DEBF0FBECDBF19A2423008F408
:100880004AE08E010F5D1F4F842E912CB12CA12CBC
:10089000A50194010E94990DE62FB901CA01EA3021
:1008A000F4F4E05DD801EE938D01232B242B252B4E
:1008B00079F790E080E0109719F0CD010E942004B4
:1008C000A1960FB6F894DEBF0FBECDBFDF91CF91DA
:1008D0001F910F91BF90AF909F908F900895E95C0A
:1008E000E1CFCF93DF930E942004EC0185E191E0FA
:1008F0000E9420048C0F9D1FDF91CF91089540919D
:10090000590250915A0260915B0270915C02809191
:100910005D0290915E02A0915F02B091600277FF4C
:1009200023C0181619061A061B0624F120915D0231
:1009300030915E024091590250915A0281E090E05C
:10094000841B950B97FF03C09195819591092817FA
:1009500039070CF50E94D0010E94C3018BEE0E9462
:1009600091018FEF0C947801452B462B472BF1F228
:10097000B7FFDCCF1092590210925A0210925B021C
:1009800010925C0210925D0210925E0210925F0261
:1009900010926002CBCF821793074CF40E94D001D3
:1009A0000E94C3018FEF0E9491018BEEDBCF08956F
:1009B0004F925F926F927F928F929F92AF92BF926F
:1009C000CF92DF92EF92FF920F931F93CF936B0121
:1009D0007C01742EAC019B010E94AD10882399F01C
:1009E00088E191E0CF911F910F91FF90EF90DF9000
:1009F000CF90BF90AF909F908F907F906F905F90BF
:100A00004F900C94200446015701E894B7F82FEF5B
:100A10003FEF4FE75FE7C501B4010E94AD108111C0
:100A20000DC02FEF3FEF4FE75FE7C501B4010E9414
:100A3000A90E18161CF48CE191E0D4CF2FEF3FEFF4
:100A40004FE75FE4C701B6010E942F1018161CF48F
:100A500080E291E0C7CF2FEF3FEF4FE75FECC70198
:100A6000B6010E94A90E87FDF3CF20E030E0A90176
:100A7000C701B6010E94A90E10E000E087FF0AC07E
:100A80006DE283E891E00E94F5028C01F7FAF094A0
:100A9000F7F8F094C0E060E070E080E09FE37C163F
:100AA00041F020E030E040E251E40E94AE0ECF5F22
:100AB000F6CFA70196010E94CB0D2B013C010E94AD
:100AC000270F4B015C014AE00E942D047C01E00EDF
:100AD000F11ECC23C1F1C501B4010E94560F9B0148
:100AE000AC01C301B2010E94CA0D4B015C016EE270
:100AF00083E891E00E94F502E80EF91EC15018F15A
:100B000020E030E040E251E4C501B4010E943C1015
:100B10002B013C010E94270F4B01B12CA12C4AE074
:100B2000C501B4010E942D04E80EF91EC501B401EF
:100B30000E94560F9B01AC01C301B2010E94CA0D75
:100B40004B015C01DBCFC701CF911F910F91FF904B
:100B5000EF90DF90CF90BF90AF909F908F907F905D
:100B60006F905F904F900895CF92DF92EF92FF9237
:100B7000CF93DF9397FF1BC06B017C016DE283E88D
:100B800091E00E94F502EC0166277727CB016C19F2
:100B90007D098E099F094AE00E942D048C0F9D1F3C
:100BA000DF91CF91FF90EF90DF90CF9008954AE0D2
:100BB000DF91CF91FF90EF90DF90CF900C942D04B8
:100BC0008091590290915A02A0915B02B0915C020F
:100BD000181619061A061B06E4F480915D0290911E
:100BE0005E02A0915F02B0916002892B8A2B8B2B51
:100BF00081F01092590210925A0210925B021092E8
:100C00005C0210925D0210925E0210925F021092DE
:100C100060022091590230915A0281E090E0821BDB
:100C2000930B20915D0230915E022817390754F42E
:100C30000E94D0010E94C3018BEE0E94AA018FEF97
:100C40000C947801821793074CF40E94D0010E9403
:100C5000C3018FEF0E94AA018BEEF2CF08954F924D
:100C60005F926F927F928F929F92AF92BF92CF923C
:100C7000DF92EF92FF920F931F93CF93DF9300D0F9
:100C800000D000D0CDB7DEB784EA8093BC0090E0FE
:100C900080E02091BC0027FD98C00197D1F7E98042
:100CA000FA80FE24EF24FE24F0923002E0922F021C
:100CB0000B811C811027012710271093320200930B
:100CC00031026D817E817627672776277093340203
:100CD00060933302072E000C880B990B0E94580F6B
:100CE0004B015C01B701FF0C880B990B0E94580F58
:100CF0006B017C01A50194010E944A0E20E030E0C6
:100D000044E353E40E943C102BED3FE049E450E4FF
:100D10000E94AE0E609335027093360280933702C4
:100D200090933802B801110F880B990B0E94580F4D
:100D30002B013C01AC019B01C701B6010E944A0E88
:100D400020E030E044E353E40E943C102BED3FE010
:100D500049E450E40E94AE0E6093390270933A0267
:100D600080933B0290933C02A5019401C301B20120
:100D70000E944A0E20E030E044E353E40E943C101D
:100D80002BED3FE049E450E40E94AE0E60933D023B
:100D900070933E0280933F029093400226960FB6D6
:100DA000F894DEBF0FBECDBFDF91CF911F910F91A1
:100DB000FF90EF90DF90CF90BF90AF909F908F907B
:100DC0007F906F905F904F9008958AE38093BB006F
:100DD00084E88093BC0090E080E02091BC0027FD77
:100DE00003C00197D1F75BCF81E08093BB0084E81B
:100DF0008093BC0090E080E02091BC0027FD03C000
:100E00000197D1F74CCF84E98093BC0084EA8093AA
:100E1000BC0090E080E02091BC0027FD03C001975A
:100E2000D1F73DCF8BE38093BB0084E88093BC0077
:100E300090E080E02091BC0027FD03C00197D1F72E
:100E40002ECFFE01319680E044EC54E8853061F409
:100E50005093BC0030E020E09091BC0097FD07C0AB
:100E600021503109C9F71BCF4093BC00F3CF9091BB
:100E7000BB0091938F5F863049F784E98093BC0073
:100E80000ECF1F920F920FB60F9211242F933F9304
:100E90008F939F93AF93BF9380917B0190917C013F
:100EA000A0917D01B0917E0130917A0123E0230F62
:100EB0002D3758F50196A11DB11D20937A0180931D
:100EC0007B0190937C01A0937D01B0937E01809182
:100ED0007F0190918001A0918101B09182010196E2
:100EE000A11DB11D80937F0190938001A09381018A
:100EF000B0938201BF91AF919F918F913F912F91BC
:100F00000F900FBE0F901F90189526E8230F0296A2
:100F1000A11DB11DD2CF1F920F920FB60F921124B7
:100F20002F933F934F935F936F937F938F939F93F1
:100F3000AF93BF93EF93FF9383E891E00E94D302B6
:100F4000FF91EF91BF91AF919F918F917F916F91A1
:100F50005F914F913F912F910F900FBE0F901F9077
:100F600018951F920F920FB60F9211242F938F9303
:100F70009F93EF93FF93E0919301F091940180810F
:100F8000E0919901F0919A0182FD1BC090818091BE
:100F90009C018F5F8F7320919D01821741F0E0913A
:100FA0009C01F0E0ED57FE4F958F80939C01FF91DF
:100FB000EF919F918F912F910F900FBE0F901F90E7
:100FC00018958081F4CF1F920F920FB60F921124C3
:100FD0002F933F934F935F936F937F938F939F9341
:100FE000AF93BF93CF93EF93FF93C9B18091210249
:100FF000C8238091020183FF19C0C3FD17C086E09A
:101000000E946903C0930201FF91EF91CF91BF91BC
:10101000AF919F918F917F916F915F914F913F9190
:101020002F910F900FBE0F901F9018958091020185
:1010300083FDE8CFC3FFE6CF80912902823051F4CF
:101040000E94490260936E0170936F01809370015A
:1010500090937101809129028330A1F60E94490288
:10106000609374017093750180937601909377017A
:10107000C9CF1F920F920FB60F9211242F933F9357
:101080004F935F936F937F938F939F93AF93BF9390
:10109000CF93EF93FF93C6B180912202C823809132
:1010A000010180FF4BC0C0FD49C080E00E94690380
:1010B0008091010181FF02C0C1FF64C080910101E4
:1010C00081FF64C08091010182FF02C0C2FF7EC027
:1010D0008091010182FF7EC08091010183FF02C0E7
:1010E000C3FF98C08091010183FF98C080910101E6
:1010F00084FF02C0C4FFB2C08091010184FFB2C06E
:101100008091010185FF02C0C5FFCCC08091010123
:1011100085FFCCC0C0930101FF91EF91CF91BF91AA
:10112000AF919F918F917F916F915F914F913F917F
:101130002F910F900FBE0F901F9018958091010175
:1011400080FDB6CFC0FFB4CF80912302823051F42E
:101150000E94490260936E0170936F018093700149
:101160009093710180912302833009F0A1CF0E94F6
:101170004902609374017093750180937601909396
:10118000770196CF81E00E9469039CCFC1FF9ACF7F
:1011900080912402823051F40E94490260936E01D2
:1011A00070936F018093700190937101809124027C
:1011B000833009F087CF0E944902609374017093D5
:1011C000750180937601909377017CCF82E00E9435
:1011D000690382CFC2FF80CF80912502823051F413
:1011E0000E94490260936E0170936F0180937001B9
:1011F0009093710180912502833009F06DCF0E9498
:101200004902609374017093750180937601909305
:10121000770162CF83E00E94690368CFC3FF66CF86
:1012200080912602823051F40E94490260936E013F
:1012300070936F01809370019093710180912602E9
:10124000833009F053CF0E94490260937401709378
:101250007501809376019093770148CF84E00E94D6
:1012600069034ECFC4FF4CCF80912702823051F4E6
:101270000E94490260936E0170936F018093700128
:101280009093710180912702833009F039CF0E9439
:101290004902609374017093750180937601909375
:1012A00077012ECF85E00E94690334CFC5FF32CF8E
:1012B00080912802823051F40E94490260936E01AD
:1012C00070936F0180937001909371018091280257
:1012D000833009F01FCF0E9449026093740170931C
:1012E0007501809376019093770114CF1F920F922E
:1012F0000FB60F9211242F933F934F935F936F93E9
:101300007F938F939F93AF93BF93CF93EF93FF936D
:10131000C3B180912002C8238091000181FF2DC0BC
:10132000C1FD2BC087E00E9469038091000182FF0C
:1013300002C0C2FF54C08091000182FF54C080915E
:10134000000183FF02C0C3FF7CC08091000182FFC7
:101350007CC0C0930001FF91EF91CF91BF91AF91FD
:101360009F918F917F916F915F914F913F912F91BD
:101370000F900FBE0F901F9018958091000181FD76
:10138000D4CFC1FFD2CF80912A02823051F40E9483
:10139000F20160936E0170936F01809370019093DE
:1013A000710180912A02833051F40E94F20160930E
:1013B0007401709375018093760190937701809109
:1013C0002A02813009F0B1CF0E94490260936A017C
:1013D00070936B0180936C0190936D01A6CF88E0B0
:1013E0000E946903ACCFC2FFAACF80912B0282304A
:1013F00051F40E94F20160936E0170936F0180932B
:1014000070019093710180912B02833051F40E94FE
:10141000F20160937401709375018093760190934B
:10142000770180912B02813009F089CF0E94490217
:1014300060936A0170936B0180936C0190936D01CE
:101440007ECF89E00E94690384CFC2FF82CF809162
:101450002C02823051F40E94F20160936E0170936D
:101460006F01809370019093710180912C02833001
:1014700051F40E94F201609374017093750180939E
:1014800076019093770180912C02813009F061CF31
:101490000E94490260936A0170936B0180936C0112
:1014A00090936D0156CF94EA9093BC0030E020E019
:1014B0009091BC0097FD04C021503109C9F70895EF
:1014C0009AE39093BB0094E89093BC0030E020E056
:1014D0009091BC0097FD04C021503109C9F70895CF
:1014E0008093BB008091BC0084688093BC0090E036
:1014F00080E02091BC0027FD03C00197D1F708953B
:10150000262FFB0181918093BB008091BC008468F1
:101510008093BC0090E080E03091BC0037FD03C0B8
:101520000197D1F708958E2F821B841758F384E911
:101530008093BC0008951F93CF93DF9300D0CDB765
:10154000DEB7E3E8F1E01382128288EE93E0A0E0D8
:10155000B0E084839583A683B78387E091E091838D
:10156000808385EC90E09587848784EC90E0978772
:10157000868780EC90E0918B808B81EC90E0938B60
:10158000828B82EC90E0958B848B86EC90E0978B3D
:10159000868B118E128E138E148E62E080E10E9473
:1015A000EA0062E08AE00E94EA00ECE6F0E0808176
:1015B00084608083E8E6F0E080818260808343E29B
:1015C00052E012E0DA0112961C93809122028460AC
:1015D000809322022BE630E0D9018C9184608C93B9
:1015E00080818160808383E0FA018087809120027E
:1015F000846080932002E9E5F2E010821182128279
:1016000013821482158216821782F0932E02E093C1
:101610002D0281E080878187E3E5F2E081E190E0BF
:10162000918380838FEF9FEF93838283958384835D
:10163000EDE4F2E024E130E0318320839383828380
:1016400095838483E7E4F2E025E130E03183208371
:101650009383828395838483E1E4F2E02EE030E09B
:1016600031832083938382839583848388E480936A
:10167000B80080E4898341E0BE016F5F7F4F8BE259
:101680000E94530A198341E0BE016F5F7F4F8EE0D5
:101690000E94530A84E089831A8342E0BE016F5F8F
:1016A0007F4F8AE20E94530A85E0898341E0BE01B0
:1016B0006F5F7F4F8AE20E94530A61E087E00E94D9
:1016C000EA0061E088E00E94EA0061E082E00E94B6
:1016D000EA0061E084E00E94EA000F900F90DF9141
:1016E000CF911F910895789484B5826084BD84B5AC
:1016F000816084BD85B5826085BD85B5816085BD0D
:1017000080916E00816080936E00109281008091C4
:10171000810082608093810080918100816080934C
:101720008100809180008160809380008091B10071
:1017300084608093B1008091B00081608093B0009C
:1017400080917A00846080937A0080917A00826030
:1017500080937A0080917A00816080937A008091F2
:101760007A00806880937A001092C100E091930122
:10177000F091940182E08083E0918F01F0919001DB
:101780001082E0919101F091920180E180831092AA
:101790009B01E0919701F091980186E08083E091B0
:1017A0009501F0919601808180618083E09195019F
:1017B000F0919601808188608083E0919501F0919D
:1017C0009601808180688083E0919501F091960177
:1017D00080818F7D80831092590210925A0210925C
:1017E0005B0210925C0210925D0210925E021092F7
:1017F0005F0210926002809141020E94DD018B3FE6
:1018000091052CF084E291E00E942004F4CF60ED79
:1018100077E080E090E00E9417028AE5C82ED12C84
:10182000E12CF12CBB24BA9400E010E00E942F06BA
:1018300080E391E00E94710460915D0270915E020C
:1018400080915F02909160020E94B40580E491E073
:101850000E9420048091590290915A02A0915B024B
:10186000B0915C029C01AD0166277727CB01621B1A
:10187000730B840B950B0E94B40580E491E00E94E9
:10188000200485E191E00E94200482E491E00E941E
:101890007104809153020E94DD01BC01990F880BF5
:1018A000990B0E94B40580E491E00E94200480918D
:1018B0004D020E94DD01BC01990F880B990B0E941B
:1018C000B40580E491E00E942004809147020E94C8
:1018D000DD01BC01990F880B990B0E94B40585E1CD
:1018E00091E00E9420040E942F0684E591E00E946E
:1018F00071046091350270913602809137029091A7
:10190000380242E00E94D80480E491E00E94200462
:101910006091390270913A0280913B0290913C02B1
:1019200042E00E94D80480E491E00E94200460918B
:101930003D0270913E0280913F029091400242E050
:101940000E94D80485E191E00E9420040E94E005F5
:1019500068EE73E080E090E00E9417020E94D001E0
:101960000E94C30168EE73E080E090E00E941702DD
:101970000E947F046AEF70E080E090E00E9417020E
:101980000E94D0010E94C30168EE73E080E090E005
:101990000E9417020E94E0056CE271E080E090E096
:1019A0000E9417020E94D0010E94C30168EE73E0FA
:1019B00080E090E00E9417020E947F046AEF70E0CE
:1019C00080E090E00E9417020E94D0010E94C301B3
:1019D00068EE73E080E090E00E9417020E94E0054C
:1019E0006CE271E080E090E00E9417020E94D0015A
:1019F0000E94C30168EE73E080E090E00E9417024D
:101A00000E947F0465E471E080E090E00E9417028C
:101A10000E94D0010E94C30168EE73E080E090E074
:101A20000E9417020E94E00520E030E040E751E408
:101A300060913502709136028091370290913802A0
:101A40000E942F10181644F5A0917801B0917901E9
:101A50002FEF30E00E94B210A70196010E947A0D8C
:101A6000C22F622F732F1616170644F5822F0E947D
:101A700091018C2F0E9478010E942F0660913502FF
:101A80007091360280913702909138020E94200FA7
:101A9000709379016093780160E070E08AE89DE5D9
:101AA0000E9417020115110509F4C0CE0E94BF0261
:101AB000882309F4BBCE0E940000B8CECC27DD27D6
:101AC000C61BD70B8C2F0E94AA0160E087E00E9402
:101AD0009E0061E088E00E949E00BE01772786E0BC
:101AE0000E941B01E0912D02F0912E02309721F20D
:101AF000B186C2CF052E97FB1EF400940E94910D73
:101B000057FD07D00E94990D07FC03D04EF40C94AA
:101B1000910D50954095309521953F4F4F4F5F4F18
:101B2000089590958095709561957F4F8F4F9F4F49
:101B30000895A1E21A2EAA1BBB1BFD010DC0AA1F0E
:101B4000BB1FEE1FFF1FA217B307E407F50720F026
:101B5000A21BB30BE40BF50B661F771F881F991FA1
:101B60001A9469F760957095809590959B01AC01EA
:101B7000BD01CF010895A29FB001B39FC001A39FF3
:101B8000700D811D1124911DB29F700D811D1124B6
:101B9000911D08955058BB27AA270E94E20D0C946E
:101BA000F50F0E94E70F38F00E94EE0F20F039F495
:101BB0009F3F19F426F40C94BD0F0EF4E095E7FB5B
:101BC0000C94B70FE92F0E94061058F3BA1762075A
:101BD00073078407950720F079F4A6F50C94281074
:101BE0000EF4E0950B2EBA2FA02D0B01B901900138
:101BF0000C01CA01A0011124FF27591B99F0593F7C
:101C000050F4503E68F11A16F040A22F232F342FC3
:101C10004427585FF3CF469537952795A795F04011
:101C20005395C9F77EF41F16BA0B620B730B840B26
:101C3000BAF09150A1F0FF0FBB1F661F771F881FDE
:101C4000C2F70EC0BA0F621F731F841F48F4879536
:101C500077956795B795F7959E3F08F0B0CF939528
:101C6000880F08F09927EE0F9795879508950E94A1
:101C7000E70F60F080E891E009F49EEF0E94EE0F1C
:101C800028F040E851E071F45EEF0CC00C94BD0FF9
:101C90000C942810E92FE0780E94061040F3092EDA
:101CA000052AB1F3261737074807590738F00E2ED3
:101CB00007F8E02569F0E025E0640AC0EF6307F863
:101CC000009407FADB01B9019D01DC01CA01AD01F5
:101CD000EF930E94C50E0E94F50F0E947A0E5F914D
:101CE000552339F02BED3FE049E450FD49EC0C94CD
:101CF000CB0D0895DF93DD27B92FBF7740E85FE371
:101D00001616170648075B0718F4D92F0E943410DF
:101D10009F938F937F936F930E94A910E8E6F0E062
:101D20000E94C00F0E94F50F2F913F914F915F913C
:101D30000E944F10DD2351F09058A2EA2AED3FE0B7
:101D400049EC5FE3D0785D270E94E20DDF910C94AF
:101D5000F50F0E94930F08F481E008950E94C20ECF
:101D60000C94F50F0E94EE0F58F00E94E70F40F020
:101D700029F45F3F29F00C94B70F51110C942910EE
:101D80000C94BD0F0E94061068F39923B1F35523FC
:101D900091F3951B550BBB27AA276217730784077E
:101DA00038F09F5F5F4F220F331F441FAA1FA9F314
:101DB00035D00E2E3AF0E0E832D091505040E69502
:101DC000001CCAF72BD0FE2F29D0660F771F881F63
:101DD000BB1F261737074807AB07B0E809F0BB0B56
:101DE000802DBF01FF2793585F4F3AF09E3F51056A
:101DF00078F00C94B70F0C9429105F3FE4F3983EF1
:101E0000D4F3869577956795B795F7959F5FC9F752
:101E1000880F911D9695879597F90895E1E0660FD3
:101E2000771F881FBB1F621773078407BA0720F04C
:101E3000621B730B840BBA0BEE1F88F7E0950895B5
:101E40000E94270F6894B1110C94291008950E94E4
:101E50000E1088F09F5798F0B92F9927B751B0F01E
:101E6000E1F0660F771F881F991F1AF0BA95C9F71E
:101E700014C0B13091F00E942810B1E008950C9484
:101E80002810672F782F8827B85F39F0B93FCCF337
:101E9000869577956795B395D9F73EF4909580959B
:101EA000709561957F4F8F4F9F4F0895E89409C0BB
:101EB00097FB3EF490958095709561957F4F8F4F7D
:101EC0009F4F9923A9F0F92F96E9BB279395F69593
:101ED000879577956795B795F111F8CFFAF4BB0F11
:101EE00011F460FF1BC06F5F7F4F8F4F9F4F16C075
:101EF000882311F096E911C0772321F09EE8872FFF
:101F0000762F05C0662371F096E8862F70E060E0BA
:101F10002AF09A95660F771F881FDAF7880F969533
:101F2000879597F90895990F0008550FAA0BE0E8D7
:101F3000FEEF16161706E807F907C0F0121613068B
:101F4000E407F50798F0621B730B840B950B39F4CB
:101F50000A2661F0232B242B252B21F408950A2631
:101F600009F4A140A6958FEF811D811D089597F971
:101F70009F6780E870E060E008959FEF80EC08952F
:101F8000DF93CF931F930F93FF92EF92DF927B012A
:101F90008C01689406C0DA2EEF010E944F10FE01FA
:101FA000E894A5912591359145915591A6F3EF01BE
:101FB0000E94E20DFE019701A801DA9469F7DF9013
:101FC000EF90FF900F911F91CF91DF910895002422
:101FD0000A941616170618060906089500240A948E
:101FE00012161306140605060895092E0394000C14
:101FF00011F4882352F0BB0F40F4BF2B11F460FFA3
:1020000004C06F5F7F4F8F4F9F4F089557FD9058CB
:10201000440F551F59F05F3F71F04795880F97FBAC
:10202000991F61F09F3F79F0879508951216130666
:102030001406551FF2CF4695F1DF08C01616170695
:102040001806991FF1CF86957105610508940895CA
:10205000E894BB2766277727CB0197F908950E945C
:10206000930F08F48FEF08959B01AC0160E070E0DE
:1020700080E89FE30C94AE0E0E944F100C94F50F75
:102080000E94E70F38F00E94EE0F20F0952311F028
:102090000C94B70F0C94BD0F11240C9429100E94BE
:1020A000061070F3959FC1F3950F50E0551F629F86
:1020B000F001729FBB27F00DB11D639FAA27F00DA1
:1020C000B11DAA1F649F6627B00DA11D661F829FC8
:1020D0002227B00DA11D621F739FB00DA11D621FAD
:1020E000839FA00D611D221F749F3327A00D611DCA
:1020F000231F849F600D211D822F762F6A2F1124AC
:102100009F5750409AF0F1F088234AF0EE0FFF1FDE
:10211000BB1F661F771F881F91505040A9F79E3F35
:10212000510580F00C94B70F0C9429105F3FE4F335
:10213000983ED4F3869577956795B795F795E7958B
:102140009F5FC1F7FE2B880F911D9695879597F994
:1021500008959B01AC010C943C100E94930F880BD6
:10216000990B08950E94BB0DB7FF0895821B930B36
:102170000895EE0FFF1F0590F491E02D0994F89457
:10218000FFCF0E3F0800000000F502550282024218
:1021900003B3029102A5020D0A006E616E00696E22
:1021A00066006F7666000A456E746572204B65792D
:1021B0000A00456E636F6465722056616C756573C5
:1021C0003A00090049522053656E736F72205661C0
:1021D0006C7565733A00416363656C65726F6D651C
:0C21E0007465722056616C7565733A00DE
:107E0000112484B714BE81FFF0D085E080938100F7
:107E100082E08093C00088E18093C10086E0809377
:107E2000C20080E18093C4008EE0C9D0259A86E02C
:107E300020E33CEF91E0309385002093840096BBD3
:107E4000B09BFECF1D9AA8958150A9F7CC24DD24C4
:107E500088248394B5E0AB2EA1E19A2EF3E0BF2EE7
:107E6000A2D0813461F49FD0082FAFD0023811F036
:107E7000013811F484E001C083E08DD089C08234E0
:107E800011F484E103C0853419F485E0A6D080C0E4
:107E9000853579F488D0E82EFF2485D0082F10E0AE
:107EA000102F00270E291F29000F111F8ED06801E7
:107EB0006FC0863521F484E090D080E0DECF843638
:107EC00009F040C070D06FD0082F6DD080E0C81688
:107ED00080E7D80618F4F601B7BEE895C0E0D1E017
:107EE00062D089930C17E1F7F0E0CF16F0E7DF06D8
:107EF00018F0F601B7BEE89568D007B600FCFDCFD4
:107F0000A601A0E0B1E02C9130E011968C91119780
:107F100090E0982F8827822B932B1296FA010C0160
:107F200087BEE89511244E5F5F4FF1E0A038BF0790
:107F300051F7F601A7BEE89507B600FCFDCF97BE46
:107F4000E89526C08437B1F42ED02DD0F82E2BD052
:107F50003CD0F601EF2C8F010F5F1F4F84911BD097
:107F6000EA94F801C1F70894C11CD11CFA94CF0C13
:107F7000D11C0EC0853739F428D08EE10CD085E9AC
:107F80000AD08FE07ACF813511F488E018D01DD067
:107F900080E101D065CF982F8091C00085FFFCCF94
:107FA0009093C60008958091C00087FFFCCF809118
:107FB000C00084FD01C0A8958091C6000895E0E648
:107FC000F0E098E1908380830895EDDF803219F02E
:107FD00088E0F5DFFFCF84E1DECF1F93182FE3DFCA
:107FE0001150E9F7F2DF1F91089580E0E8DFEE27F6
:047FF000FF270994CA
:027FFE00040479
:00000001FF
