:020000040000FA
:100000000C9474000C949C000C949C000C944D086F
:100010000C9410070C94BA060C949C000C949C0051
:100020000C949C000C949C000C949C000C949C00E0
:100030000C949C000C949C000C949C000C949C00D0
:100040000C9418060C949C000C9488060C94620680
:100050000C949C000C949C000C949C000C949C00B0
:100060000C949C000C949C00084AD73B3BCE016E3C
:1000700084BCBFFDC12F3D6C74319ABD56833DDAFF
:100080003D00C77F11BED9E4BB4C3E916BAAAABE0E
:10009000000000803F0000000000240027002A002C
:1000A00000000000250028002B00040404040404C0
:1000B0000404020202020202030303030303010217
:1000C00004081020408001020408102001020408E6
:1000D00010200000000800020100000304070000D7
:1000E000000000000000720911241FBECFEFD8E00D
:1000F000DEBFCDBF11E0A0E0B1E0EEE1FEE102C065
:1001000005900D92AC33B107D9F722E0ACE3B1E032
:1001100001C01D92AD32B207E1F710E0C4E7D0E0B4
:1001200004C02197FE010E94070FC337D107C9F70A
:100130000E94400A0C940D0F0C94000090E0FC010A
:10014000EE52FF4F2491FC01E254FF4F3491FC0129
:10015000E655FF4FE491EE23C9F0222339F0233016
:1001600001F1A8F4213019F1223029F1F0E0EE0F6D
:10017000FF1FE056FF4FA591B4918FB7F894EC9113
:10018000611126C030953E233C938FBF08952730E0
:10019000A9F02830C9F0243049F7809180008F7D84
:1001A00003C0809180008F7780938000DFCF84B57B
:1001B0008F7784BDDBCF84B58F7DFBCF8091B0007E
:1001C0008F778093B000D2CF8091B0008F7DF9CF30
:1001D0003E2BDACFCF93DF9390E0FC01E254FF4F48
:1001E000249186559F4FFC0184918823D1F090E0A3
:1001F000880F991FFC01EA56FF4FA591B491FC01AD
:10020000E056FF4FC591D491623071F49FB7F894D6
:100210003C91822F809583238C93E8812E2B288319
:100220009FBFDF91CF9108958FB7F894EC912E2B5B
:100230002C938FBFF6CF1F93CF93DF93182FEB0133
:1002400061E00E94EA00209739F460E0812FDF919D
:10025000CF911F910C949E00CF3FD10511F461E026
:10026000F5CFE12FF0E0EE52FF4FE491E33031F1B2
:1002700040F4E130B1F0E230E1F0C038D1057CF774
:10028000E4CFE73029F1E83059F1E430B1F780915B
:100290008000806280938000D0938B00C0938A009E
:1002A00004C084B5806884BDC7BDDF91CF911F9124
:1002B000089584B5806284BDC8BDF7CF8091800069
:1002C000806880938000D0938900C0938800EDCF30
:1002D0008091B00080688093B000C093B300E5CFF8
:1002E0008091B00080628093B000C093B400DDCFF5
:1002F000CF93C82F60E087E00E949E0061E088E015
:100300000E949E006C2F70E086E00E941B01E0912D
:10031000FD01F091FE01309711F08FEF8187CF91B1
:100320000895CF93C82F61E087E00E949E0060E0AF
:1003300088E00E949E006C2F70E086E00E941B0106
:10034000E091FD01F091FE01309711F081E081878D
:10035000CF910895CF93C82F60E082E00E949E0065
:1003600061E084E00E949E006C2F70E085E00E94B6
:100370001B01E091FD01F091FE01309711F08FEF2C
:100380008087CF91089561E087E00E949E0061E040
:1003900088E00E949E0070E060E086E00C941B0103
:1003A00061E082E00E949E0061E084E00E949E0085
:1003B00070E060E085E00C941B013FB7F8948091F9
:1003C0004F0190915001A0915101B091520126B579
:1003D000A89B05C02F3F19F00196A11DB11D3FBF7D
:1003E000BA2FA92F982F8827BC01CD01620F711D4C
:1003F000811D911D42E0660F771F881F991F4A9546
:10040000D1F708952FB7F89460914B0170914C018A
:1004100080914D0190914E012FBF0895AF92BF92F0
:10042000CF92DF92EF92FF920F931F93CF93DF93C0
:100430006C017B018B01040F151FEB015E01AE18EF
:10044000BF08C017D10759F06991D601ED91FC9111
:100450000190F081E02DC6010995892B79F7C5013E
:10046000DF91CF911F910F91FF90EF90DF90CF9090
:10047000BF90AF900895FC01538D448D252F30E03F
:10048000842F90E0821B930B541710F0CF960895A1
:1004900001970895FC01918D828D981761F0A28DCE
:1004A000AE0FBF2FB11D5D968C91928D9F5F9F7394
:1004B000928F90E008958FEF9FEF0895FC01918D4A
:1004C000828D981731F0828DE80FF11D858D90E0B7
:1004D00008958FEF9FEF0895FC01918D228D892F54
:1004E00090E0805C9F4F821B91098F73992708953C
:1004F00083E591E00E946C0221E0892B09F420E061
:10050000822F089580E090E0892B29F00E947802E4
:1005100081110C9400000895FC01A48DA80FB92F3F
:10052000B11DA35ABF4F2C91848D90E001968F731B
:100530009927848FA689B7892C93A089B1898C913A
:10054000837080648C93938D848D981306C0028889
:10055000F389E02D80818F7D80830895EF92FF9253
:100560000F931F93CF93DF93EC0181E0888F9B8DD6
:100570008C8D98131AC0E889F989808185FF15C090
:100580009FB7F894EE89FF896083E889F9898081B3
:100590008370806480839FBF81E090E0DF91CF9182
:1005A0001F910F91FF90EF900895F62E0B8D10E0A4
:1005B0000F5F1F4F0F731127E02E8C8D8E110CC013
:1005C0000FB607FCFACFE889F989808185FFF5CF5E
:1005D000CE010E948C02F1CFEB8DEC0FFD2FF11DAF
:1005E000E35AFF4FF0829FB7F8940B8FEA89FB899B
:1005F00080818062CFCFCF93DF93EC01888D8823F9
:10060000B9F0AA89BB89E889F9898C9185FD03C075
:10061000808186FD0DC00FB607FCF7CF8C9185FF5A
:10062000F2CF808185FFEDCFCE010E948C02E9CF11
:10063000DF91CF91089520E001972FEF8F3F920730
:10064000D9F70895CF92DF92EF92FF92CF93DF9385
:10065000E82FF0E0ED50FE4F8081823009F442C077
:1006600050F4813009F496C0DF91CF91FF90EF9064
:10067000DF90CF900895833009F460C08430A1F7F3
:1006800080911300909114000E941B03C8E0D0E0F9
:1006900080911500909116000E941B03E0910E00BE
:1006A000F0910F008081219799F780911700909128
:1006B00018000E941B03809145012091440190E0A5
:1006C00001968F7399272817190609F46CC0809139
:1006D00045018091450190E001968F7399278093A1
:1006E0004501C2CFC0904001D0904101E09042014D
:1006F000F09043010E94DD0122E3C20ED11CE11CF7
:10070000F11CC616D706E806F90608F0ADCFE09151
:10071000FD01F091FE018085082E000C990BAA0BBB
:10072000BB0B4081518162817381840F951FA61F8D
:10073000B71F80839183A283B38396CFC090460175
:10074000D0904701E0904801F09049010E94DD01FE
:10075000E2E3CE0ED11CE11CF11CC616D706E8065A
:10076000F90608F081CFE091FD01F091FE0181854D
:10077000082E000C990BAA0BBB0B44815581668196
:100780007781840F951FA61FB71F84839583A68347
:10079000B7836ACFF0E0E0E0DF91CF91FF90EF9078
:1007A000DF90CF90099480911B00816080931B00A3
:1007B0005BCFFC0101900020E9F73197AF01481BA6
:1007C000590BBC0183E591E00C940E028F929F922D
:1007D000AF92BF920F931F93CF93DF93CDB7DEB746
:1007E000A1970FB6F894DEBF0FBECDBF19A242305D
:1007F00008F44AE08E010F5D1F4F842E912CB12C1E
:10080000A12CA50194010E94E50EE62FB901CA01B1
:10081000EA30F4F4E05DD801EE938D01232B242B14
:10082000252B79F790E080E0109719F0CD010E9418
:10083000D903A1960FB6F894DEBF0FBECDBFDF91EE
:10084000CF911F910F91BF90AF909F908F9008957F
:10085000E95CE1CF4F925F926F927F928F929F926D
:10086000AF92BF92CF92DF92EF92FF920F931F93BE
:10087000CF936B017C01742EAC019B010E94E00EB2
:10088000882399F085E191E0CF911F910F91FF901E
:10089000EF90DF90CF90BF90AF909F908F907F9020
:1008A0006F905F904F900C94D90346015701E894E4
:1008B000B7F82FEF3FEF4FE75FE7C501B4010E94A4
:1008C000E00E81110DC02FEF3FEF4FE75FE7C5014D
:1008D000B4010E94E30C18161CF489E191E0D4CF16
:1008E0002FEF3FEF4FE75FE4C701B6010E94620EB2
:1008F00018161CF48DE191E0C7CF2FEF3FEF4FE7C3
:100900005FECC701B6010E94E30C87FDF3CF20E046
:1009100030E0A901C701B6010E94E30C10E000E03D
:1009200087FF0AC06DE283E591E00E94AE028C0170
:10093000F7FAF094F7F8F094C0E060E070E080E03F
:100940009FE37C1641F020E030E040E251E40E9459
:10095000E80CCF5FF6CFA70196010E94050C2B0192
:100960003C010E945A0D4B015C014AE00E94E603E3
:100970007C01E00EF11ECC23C1F1C501B4010E943F
:10098000890D9B01AC01C301B2010E94040C4B0113
:100990005C016EE283E591E00E94AE02E80EF91E72
:1009A000C15018F120E030E040E251E4C501B4014B
:1009B0000E946F0E2B013C010E945A0D4B01B12C7D
:1009C000A12C4AE0C501B4010E94E603E80EF91E1D
:1009D000C501B4010E94890D9B01AC01C301B201A4
:1009E0000E94040C4B015C01DBCFC701CF911F912A
:1009F0000F91FF90EF90DF90CF90BF90AF909F90BE
:100A00008F907F906F905F904F9008954F925F927C
:100A10006F927F928F929F92AF92BF92CF92DF920E
:100A2000EF92FF920F931F93CF93DF9300D000D0EC
:100A300000D0CDB7DEB784EA8093BC0090E080E0C0
:100A40002091BC0027FD98C00197D1F7E980FA807A
:100A5000FE24EF24FE24F0920002E092FF010B81BD
:100A60001C81102701271027109302020093010216
:100A70006D817E81762767277627709304026093C5
:100A80000302072E000C880B990B0E948B0D4B0163
:100A90005C01B701FF0C880B990B0E948B0D6B0159
:100AA0007C01A50194010E94840C20E030E044E325
:100AB00053E40E946F0E2BED3FE049E450E40E94A6
:100AC000E80C6093050270930602809307029093EE
:100AD0000802B801110F880B990B0E948B0D2B0196
:100AE0003C01AC019B01C701B6010E94840C20E0CF
:100AF00030E044E353E40E946F0E2BED3FE049E405
:100B000050E40E94E80C6093090270930A028093FB
:100B10000B0290930C02A5019401C301B2010E9443
:100B2000840C20E030E044E353E40E946F0E2BED90
:100B30003FE049E450E40E94E80C60930D0270939A
:100B40000E0280930F029093100226960FB6F8942F
:100B5000DEBF0FBECDBFDF91CF911F910F91FF90F0
:100B6000EF90DF90CF90BF90AF909F908F907F904D
:100B70006F905F904F9008958AE38093BB0084E864
:100B80008093BC0090E080E02091BC0027FD03C072
:100B90000197D1F75BCF81E08093BB0084E880931D
:100BA000BC0090E080E02091BC0027FD03C00197CD
:100BB000D1F74CCF84E98093BC0084EA8093BC00D9
:100BC00090E080E02091BC0027FD03C00197D1F7A1
:100BD0003DCF8BE38093BB0084E88093BC0090E022
:100BE00080E02091BC0027FD03C00197D1F72ECFF4
:100BF000FE01319680E044EC54E8853061F4509376
:100C0000BC0030E020E09091BC0097FD07C021506F
:100C10003109C9F71BCF4093BC00F3CF9091BB00C3
:100C200091938F5F863049F784E98093BC000ECFA3
:100C30001F920F920FB60F9211242F933F938F9311
:100C40009F93AF93BF9380914B0190914C01A091E2
:100C50004D01B0914E0130914A0123E0230F2D3711
:100C600058F50196A11DB11D20934A0180934B01B7
:100C700090934C01A0934D01B0934E0180914F0190
:100C800090915001A0915101B09152010196A11D86
:100C9000B11D80934F0190935001A0935101B093E7
:100CA0005201BF91AF919F918F913F912F910F90E2
:100CB0000FBE0F901F90189526E8230F0296A11DD6
:100CC000B11DD2CF1F920F920FB60F9211242F9306
:100CD0003F934F935F936F937F938F939F93AF93C4
:100CE000BF93EF93FF9383E591E00E948C02FF9105
:100CF000EF91BF91AF919F918F917F916F915F9194
:100D00004F913F912F910F900FBE0F901F9018950C
:100D10001F920F920FB60F9211242F938F939F93D0
:100D2000EF93FF93E0916301F09164018081E09182
:100D30006901F0916A0182FD1BC0908180916C0174
:100D40008F5F8F7320916D01821741F0E0916C01EC
:100D5000F0E0ED5AFE4F958F80936C01FF91EF917B
:100D60009F918F912F910F900FBE0F901F9018950C
:100D70008081F4CF1F920F920FB60F9211242F9300
:100D80003F934F935F936F937F938F939F93AF9313
:100D9000BF93CF93EF93FF93C9B18091F101C82323
:100DA0008091020183FF19C0C3FD17C086E00E9435
:100DB0002203C0930201FF91EF91CF91BF91AF91B8
:100DC0009F918F917F916F915F914F913F912F9163
:100DD0000F900FBE0F901F9018958091020183FD18
:100DE000E8CFC3FFE6CF8091F901823051F40E9431
:100DF00002026093400170934101809342019093FD
:100E000043018091F9018330A1F60E9402026093B0
:100E10004601709347018093480190934901C9CFDF
:100E20001F920F920FB60F9211242F933F934F935F
:100E30005F936F937F938F939F93AF93BF93CF9362
:100E4000EF93FF93C6B18091F201C8238091010115
:100E500080FF4BC0C0FD49C080E00E94220380910A
:100E6000010181FF02C0C1FF64C08091010181FFC7
:100E700064C08091010182FF02C0C2FF7EC08091E8
:100E8000010182FF7EC08091010183FF02C0C3FF88
:100E900098C08091010183FF98C08091010184FF77
:100EA00002C0C4FFB2C08091010184FFB2C0809132
:100EB000010185FF02C0C5FFCCC08091010185FF03
:100EC000CCC0C0930101FF91EF91CF91BF91AF9141
:100ED0009F918F917F916F915F914F913F912F9152
:100EE0000F900FBE0F901F9018958091010180FD0B
:100EF000B6CFC0FFB4CF8091F301823051F40E948D
:100F000002026093400170934101809342019093EB
:100F100043018091F301833009F0A1CF0E940202C6
:100F20006093460170934701809348019093490173
:100F300096CF81E00E9422039CCFC1FF9ACF80917F
:100F4000F401823051F40E940202609340017093D8
:100F5000410180934201909343018091F4018330D9
:100F600009F087CF0E940202609346017093470107
:100F700080934801909349017CCF82E00E94220334
:100F800082CFC2FF80CF8091F501823051F40E9460
:100F9000020260934001709341018093420190935B
:100FA00043018091F501833009F06DCF0E94020268
:100FB00060934601709347018093480190934901E3
:100FC00062CF83E00E94220368CFC3FF66CF809187
:100FD000F601823051F40E94020260934001709346
:100FE000410180934201909343018091F601833047
:100FF00009F053CF0E9402026093460170934701AB
:10100000809348019093490148CF84E00E942203D5
:101010004ECFC4FF4CCF8091F701823051F40E9433
:1010200002026093400170934101809342019093CA
:1010300043018091F701833009F039CF0E94020209
:101040006093460170934701809348019093490152
:101050002ECF85E00E94220334CFC5FF32CF80918E
:10106000F801823051F40E940202609340017093B3
:10107000410180934201909343018091F8018330B4
:1010800009F01FCF0E94020260934601709347014E
:10109000809348019093490114CF1F920F920FB68D
:1010A0000F9211242F933F934F935F936F937F93EE
:1010B0008F939F93AF93BF93CF93EF93FF93C3B15E
:1010C0008091F001C8238091000181FF2DC0C1FDF6
:1010D0002BC087E00E9422038091000182FF02C0A2
:1010E000C2FF54C08091000182FF54C08091000172
:1010F00083FF02C0C3FF7CC08091000182FF7CC0DF
:10110000C0930001FF91EF91CF91BF91AF919F915B
:101110008F917F916F915F914F913F912F910F90A0
:101120000FBE0F901F9018958091000181FDD4CFC4
:10113000C1FFD2CF8091FA01823051F40E94DD01CB
:101140006093400170934101809342019093430169
:101150008091FA01833051F40E94DD0160934601D1
:101160007093470180934801909349018091FA015F
:10117000813009F0B1CF0E94020260933C0170936C
:101180003D0180933E0190933F01A6CF88E00E94ED
:101190002203ACCFC2FFAACF8091FB01823051F471
:1011A0000E94DD01609340017093410180934201F0
:1011B000909343018091FB01833051F40E94DD0143
:1011C00060934601709347018093480190934901D1
:1011D0008091FB01813009F089CF0E940202609367
:1011E0003C0170933D0180933E0190933F017ECF7F
:1011F00089E00E94220384CFC2FF82CF8091FC014C
:10120000823051F40E94DD016093400170934101EE
:1012100080934201909343018091FC01833051F40B
:101220000E94DD016093460170934701809348015D
:10123000909349018091FC01813009F061CF0E94B7
:10124000020260933C0170933D0180933E019093B4
:101250003F0156CF94EA9093BC0030E020E090919B
:10126000BC0097FD04C021503109C9F708959AE3E5
:101270009093BB0094E89093BC0030E020E0909104
:10128000BC0097FD04C021503109C9F7089580932F
:10129000BB008091BC0084688093BC0090E080E03B
:1012A0002091BC0027FD03C00197D1F70895262F98
:1012B000FB0181918093BB008091BC008468809386
:1012C000BC0090E080E03091BC0037FD03C0019786
:1012D000D1F708958E2F821B841758F384E98093E9
:1012E000BC0008951F93CF93DF9300D0CDB7DEB736
:1012F000E3E5F1E01382128288EE93E0A0E0B0E033
:1013000084839583A683B78387E091E0918380836C
:1013100085EC90E09587848784EC90E097878687BA
:1013200080EC90E0918B808B81EC90E0938B828BB2
:1013300082EC90E0958B848B86EC90E0978B868B8B
:10134000118E128E138E148E62E080E10E94EA00EC
:1013500062E08AE00E94EA00ECE6F0E080818460CE
:101360008083E8E6F0E080818260808343EF51E093
:1013700012E0DA0112961C938091F201846080934E
:10138000F2012BE630E0D9018C9184608C9380814E
:101390008160808383E0FA0180878091F00184601E
:1013A0008093F001E3E2F2E0108211821282138254
:1013B0001482158216821782F093FE01E093FD01DC
:1013C00081E080878187EDE1F2E081E190E0918327
:1013D00080838FEF9FEF9383828395838483E7E1FC
:1013E000F2E024E130E0318320839383828395838C
:1013F0008483E1E1F2E025E130E0318320839383CF
:1014000082839583848388E48093B80080E4898311
:1014100041E0BE016F5F7F4F8BE20E942A09198372
:1014200041E0BE016F5F7F4F8EE00E942A0984E099
:1014300089831A8342E0BE016F5F7F4F8AE20E9478
:101440002A0985E0898341E0BE016F5F7F4F8AE210
:101450000E942A0961E087E00E94EA0061E088E0DA
:101460000E94EA0061E082E00E94EA0061E084E01C
:101470000E94EA000F900F90DF91CF911F91089585
:10148000789484B5826084BD84B5816084BD85B55F
:10149000826085BD85B5816085BD80916E0081606B
:1014A00080936E0010928100809181008260809311
:1014B0008100809181008160809381008091800013
:1014C0008160809380008091B10084608093B1003E
:1014D0008091B00081608093B00080917A00846038
:1014E00080937A0080917A00826080937A00809164
:1014F0007A00816080937A0080917A00806880937E
:101500007A001092C100E0916301F091640182E0E1
:101510008083E0915F01F09160011082E0916101B0
:10152000F091620180E1808310926B01E09167018C
:10153000F091680186E08083E0916501F091660199
:10154000808180618083E0916501F09166018081F6
:1015500088608083E0916501F091660180818068F8
:101560008083E0916501F091660180818F7D8083A9
:101570001092230210922402109225021092260249
:1015800010922702109228021092290210922A0229
:10159000C1E0D0E000E010E00E9406050E940605D0
:1015A00081E291E00E94D90387E391E00E94D90390
:1015B00060910502709106028091070290910802E5
:1015C00042E00E942A048AE391E00E94D9036091DC
:1015D000090270910A0280910B0290910C0242E084
:1015E0000E942A048AE391E00E94D90360910D02CF
:1015F00070910E0280910F029091100242E00E94C1
:101600002A0487E391E00E94D9030E94D0010E943E
:10161000C3018091230290912402A0912502B091F0
:101620002602B7FFB8C08091270290912802A091AE
:101630002902B0912A02181619061A061B060CF484
:10164000B9C080912302909124029E01281B390B7E
:10165000809127029091280297FF03C09195819570
:101660009109821793070CF0B6C00E94D0010E9426
:10167000C3018BEE0E94AA018FEF0E9478010E94A5
:10168000DD014B015C0188EEC82E83E0D82EE12CF1
:10169000F12C0E94DD01681979098A099B09683ECD
:1016A000734081059105A8F321E0C21AD108E10831
:1016B000F10888EE880E83E0981EA11CB11CC114AD
:1016C000D104E104F10429F70E94D0010E94C30172
:1016D00020E030E040EA51E460910502709106029A
:1016E00080910702909108020E94620E18160CF079
:1016F00046C00E94D0010E94C301809123029091B4
:101700002402A0912502B0912602181619061A0685
:101710001B06E4F48091270290912802A0912902EF
:10172000B0912A02892B8A2B8B2B81F010922302F5
:101730001092240210922502109226021092270283
:10174000109228021092290210922A0280912302FC
:10175000909124029E01281B390B809127029091C1
:101760002802821793070CF043C00E94D0010E9408
:10177000C3018BEE0E94AA018FEF0E949101011517
:10178000110509F409CF0E947802882309F404CFD7
:101790000E94000001CF892B8A2B8B2B09F451CF9B
:1017A0008091270290912802A0912902B0912A02EB
:1017B000B7FF47CF10922302109224021092250205
:1017C00010922602109227021092280210922902EB
:1017D00010922A0236CF281739070CF050CF0E94FA
:1017E000D0010E94C3018FEF0E94AA018BEE45CF6A
:1017F0002817390724F60E94D0010E94C3018FEFF9
:101800000E94AA018BEEB9CF5058BB27AA270E948D
:101810001C0C0C94280E0E941A0E38F00E94210E07
:1018200020F039F49F3F19F426F40C94F00D0EF4D7
:10183000E095E7FB0C94EA0DE92F0E94390E58F36E
:10184000BA17620773078407950720F079F4A6F5A5
:101850000C945B0E0EF4E0950B2EBA2FA02D0B010D
:10186000B90190010C01CA01A0011124FF27591BE5
:1018700099F0593F50F4503E68F11A16F040A22FEB
:10188000232F342F4427585FF3CF4695379527955C
:10189000A795F0405395C9F77EF41F16BA0B620B5B
:1018A000730B840BBAF09150A1F0FF0FBB1F661FA2
:1018B000771F881FC2F70EC0BA0F621F731F841FE5
:1018C00048F4879577956795B795F7959E3F08F00B
:1018D000B0CF9395880F08F09927EE0F97958795CD
:1018E00008950E941A0E60F080E891E009F49EEFDE
:1018F0000E94210E28F040E851E071F45EEF0CC028
:101900000C94F00D0C945B0EE92FE0780E94390ED8
:1019100040F3092E052AB1F3261737074807590760
:1019200038F00E2E07F8E02569F0E025E0640AC0E3
:10193000EF6307F8009407FADB01B9019D01DC01B0
:10194000CA01AD01EF930E94FF0C0E94280E0E9475
:10195000B40C5F91552339F02BED3FE049E450FD85
:1019600049EC0C94050C0895DF93DD27B92FBF7760
:1019700040E85FE31616170648075B0718F4D92FEF
:101980000E94670E9F938F937F936F930E94DC0E4C
:10199000E8E6F0E00E94F30D0E94280E2F913F919F
:1019A0004F915F910E94820EDD2351F09058A2EA80
:1019B0002AED3FE049EC5FE3D0785D270E941C0CE4
:1019C000DF910C94280E0E94C60D08F481E0089562
:1019D0000E94FC0C0C94280E0E94210E58F00E94CC
:1019E0001A0E40F029F45F3F29F00C94EA0D5111D2
:1019F0000C945C0E0C94F00D0E94390E68F3992340
:101A0000B1F3552391F3951B550BBB27AA276217FA
:101A10007307840738F09F5F5F4F220F331F441F07
:101A2000AA1FA9F335D00E2E3AF0E0E832D091503B
:101A30005040E695001CCAF72BD0FE2F29D0660F28
:101A4000771F881FBB1F261737074807AB07B0E86B
:101A500009F0BB0B802DBF01FF2793585F4F3AF071
:101A60009E3F510578F00C94EA0D0C945C0E5F3F9C
:101A7000E4F3983ED4F3869577956795B795F795F7
:101A80009F5FC9F7880F911D9695879597F90895DF
:101A9000E1E0660F771F881FBB1F6217730784077B
:101AA000BA0720F0621B730B840BBA0BEE1F88F78A
:101AB000E09508950E94410E88F09F5798F0B92F45
:101AC0009927B751B0F0E1F0660F771F881F991F73
:101AD0001AF0BA95C9F714C0B13091F00E945B0EAC
:101AE000B1E008950C945B0E672F782F8827B85FBC
:101AF00039F0B93FCCF3869577956795B395D9F7CB
:101B00003EF490958095709561957F4F8F4F9F4FD4
:101B10000895E89409C097FB3EF4909580957095E0
:101B200061957F4F8F4F9F4F9923A9F0F92F96E929
:101B3000BB279395F695879577956795B795F1119E
:101B4000F8CFFAF4BB0F11F460FF1BC06F5F7F4F3B
:101B50008F4F9F4F16C0882311F096E911C077234D
:101B600021F09EE8872F762F05C0662371F096E856
:101B7000862F70E060E02AF09A95660F771F881F25
:101B8000DAF7880F9695879597F90895990F0008C9
:101B9000550FAA0BE0E8FEEF16161706E807F9073F
:101BA000C0F012161306E407F50798F0621B730BDA
:101BB000840B950B39F40A2661F0232B242B252B5B
:101BC00021F408950A2609F4A140A6958FEF811DFE
:101BD000811D089597F99F6780E870E060E008959F
:101BE0009FEF80EC0895DF93CF931F930F93FF92A5
:101BF000EF92DF927B018C01689406C0DA2EEF0130
:101C00000E94820EFE01E894A5912591359145919F
:101C10005591A6F3EF010E941C0CFE019701A8014B
:101C2000DA9469F7DF90EF90FF900F911F91CF91B9
:101C3000DF91089500240A9416161706180609065F
:101C4000089500240A941216130614060506089532
:101C5000092E0394000C11F4882352F0BB0F40F4BA
:101C6000BF2B11F460FF04C06F5F7F4F8F4F9F4FFA
:101C7000089557FD9058440F551F59F05F3F71F07C
:101C80004795880F97FB991F61F09F3F79F08795E3
:101C90000895121613061406551FF2CF4695F1DF6C
:101CA00008C0161617061806991FF1CF86957105FC
:101CB000610508940895E894BB2766277727CB0130
:101CC00097F908950E94C60D08F48FEF08959B01BF
:101CD000AC0160E070E080E89FE30C94E80C0E94A7
:101CE000820E0C94280E0E941A0E38F00E94210ECB
:101CF00020F0952311F00C94EA0D0C94F00D1124B2
:101D00000C945C0E0E94390E70F3959FC1F3950FF1
:101D100050E0551F629FF001729FBB27F00DB11D6F
:101D2000639FAA27F00DB11DAA1F649F6627B00DFF
:101D3000A11D661F829F2227B00DA11D621F739FE8
:101D4000B00DA11D621F839FA00D611D221F749FF6
:101D50003327A00D611D231F849F600D211D822F3D
:101D6000762F6A2F11249F5750409AF0F1F0882364
:101D70004AF0EE0FFF1FBB1F661F771F881F915091
:101D80005040A9F79E3F510580F00C94EA0D0C9449
:101D90005C0E5F3FE4F3983ED4F3869577956795A4
:101DA000B795F795E7959F5FC1F7FE2B880F911DBB
:101DB0009695879597F908959B01AC010C946F0E49
:101DC0000E94C60D880B990B0895A1E21A2EAA1B3A
:101DD000BB1BFD010DC0AA1FBB1FEE1FFF1FA217DB
:101DE000B307E407F50720F0A21BB30BE40BF50BD8
:101DF000661F771F881F991F1A9469F76095709561
:101E0000809590959B01AC01BD01CF010895EE0F27
:101E1000FF1F0590F491E02D0994F894FFCF0E3F39
:101E20000800000000AE020E023B02FB026C024AF8
:101E3000025E026E616E00696E66006F766600413A
:101E40006363656C65726F6D657465722056616C55
:0A1E50007565733A000D0A000900E1
:107E0000112484B714BE81FFF0D085E080938100F7
:107E100082E08093C00088E18093C10086E0809377
:107E2000C20080E18093C4008EE0C9D0259A86E02C
:107E300020E33CEF91E0309385002093840096BBD3
:107E4000B09BFECF1D9AA8958150A9F7CC24DD24C4
:107E500088248394B5E0AB2EA1E19A2EF3E0BF2EE7
:107E6000A2D0813461F49FD0082FAFD0023811F036
:107E7000013811F484E001C083E08DD089C08234E0
:107E800011F484E103C0853419F485E0A6D080C0E4
:107E9000853579F488D0E82EFF2485D0082F10E0AE
:107EA000102F00270E291F29000F111F8ED06801E7
:107EB0006FC0863521F484E090D080E0DECF843638
:107EC00009F040C070D06FD0082F6DD080E0C81688
:107ED00080E7D80618F4F601B7BEE895C0E0D1E017
:107EE00062D089930C17E1F7F0E0CF16F0E7DF06D8
:107EF00018F0F601B7BEE89568D007B600FCFDCFD4
:107F0000A601A0E0B1E02C9130E011968C91119780
:107F100090E0982F8827822B932B1296FA010C0160
:107F200087BEE89511244E5F5F4FF1E0A038BF0790
:107F300051F7F601A7BEE89507B600FCFDCF97BE46
:107F4000E89526C08437B1F42ED02DD0F82E2BD052
:107F50003CD0F601EF2C8F010F5F1F4F84911BD097
:107F6000EA94F801C1F70894C11CD11CFA94CF0C13
:107F7000D11C0EC0853739F428D08EE10CD085E9AC
:107F80000AD08FE07ACF813511F488E018D01DD067
:107F900080E101D065CF982F8091C00085FFFCCF94
:107FA0009093C60008958091C00087FFFCCF809118
:107FB000C00084FD01C0A8958091C6000895E0E648
:107FC000F0E098E1908380830895EDDF803219F02E
:107FD00088E0F5DFFFCF84E1DECF1F93182FE3DFCA
:107FE0001150E9F7F2DF1F91089580E0E8DFEE27F6
:047FF000FF270994CA
:027FFE00040479
:00000001FF
