:100000000C945D000C9485000C9485000C9486057E
:100010000C9449040C94F3030C9485000C94850013
:100020000C9485000C9485000C9485000C9485003C
:100030000C9485000C9485000C9485000C9485002C
:100040000C9451030C9485000C94C1030C949B03F5
:100050000C9485000C9485000C9485000C9485000C
:100060000C9485000C9485000000000024002700FB
:100070002A0000000000250028002B0004040404CE
:100080000404040402020202020203030303030342
:10009000010204081020408001020408102001021F
:1000A00004081020000000080002010000030407FB
:1000B0000000000000000000630611241FBECFEF07
:1000C000D8E0DEBFCDBF11E0A0E0B1E0E6E9F0E1AD
:1000D00002C005900D92AA32B107D9F721E0AAE239
:1000E000B1E001C01D92A73FB207E1F710E0CDE5F6
:1000F000D0E004C02197FE010E944308CC35D1070F
:10010000C9F70E94E1060C9449080C94000090E0A5
:10011000FC01EC55FF4F2491FC01E057FF4F349157
:10012000FC01E458FF4FE491EE23C9F0222339F09B
:10013000233001F1A8F4213019F1223029F1F0E047
:10014000EE0FFF1FEE58FF4FA591B4918FB7F894B3
:10015000EC91611126C030953E233C938FBF0895EA
:100160002730A9F02830C9F0243049F78091800069
:100170008F7D03C0809180008F7780938000DFCFD8
:1001800084B58F7784BDDBCF84B58F7DFBCF809125
:10019000B0008F778093B000D2CF8091B0008F7D78
:1001A000F9CF3E2BDACFCF93DF9390E0FC01E057FD
:1001B000FF4F249184589F4FFC0184918823D1F0F4
:1001C00090E0880F991FFC01E859FF4FA591B49169
:1001D000FC01EE58FF4FC591D491623071F49FB786
:1001E000F8943C91822F809583238C93E8812E2B69
:1001F00028839FBFDF91CF9108958FB7F894EC913A
:100200002E2B2C938FBFF6CF3FB7F89480913D01F2
:1002100090913E01A0913F01B091400126B5A89B6D
:1002200005C02F3F19F00196A11DB11D3FBFBA2F88
:10023000A92F982F8827BC01CD01620F711D811D48
:10024000911D42E0660F771F881F991F4A95D1F7CD
:1002500008952FB7F8946091390170913A01809117
:100260003B0190913C012FBF0895AF92BF92CF9276
:10027000DF92EF92FF920F931F93CF93DF936C0166
:100280007B018B01040F151FEB015E01AE18BF0847
:10029000C017D10759F06991D601ED91FC910190F9
:1002A000F081E02DC6010995892B79F7C501DF9111
:1002B000CF911F910F91FF90EF90DF90CF90BF9063
:1002C000AF900895FC01538D448D252F30E0842F8D
:1002D00090E0821B930B541710F0CF96089501976E
:1002E0000895FC01918D828D981761F0A28DAE0F5B
:1002F000BF2FB11D5D968C91928D9F5F9F73928FE2
:1003000090E008958FEF9FEF0895FC01918D828D0D
:10031000981731F0828DE80FF11D858D90E00895DA
:100320008FEF9FEF0895FC01918D228D892F90E032
:10033000805C9F4F821B91098F739927089581E4F8
:1003400091E00E94930121E0892B09F420E0822FA3
:10035000089580E090E0892B29F00E949F0181118F
:100360000C9400000895FC01A48DA80FB92FB11DB5
:10037000A35ABF4F2C91848D90E001968F739927DB
:10038000848FA689B7892C93A089B1898C918370B9
:1003900080648C93938D848D981306C00288F389B2
:1003A000E02D80818F7D80830895EF92FF920F93DF
:1003B0001F93CF93DF93EC0181E0888F9B8D8C8D11
:1003C00098131AC0E889F989808185FF15C09FB705
:1003D000F894EE89FF896083E889F98980818370C8
:1003E000806480839FBF81E090E0DF91CF911F9177
:1003F0000F91FF90EF900895F62E0B8D10E00F5F98
:100400001F4F0F731127E02E8C8D8E110CC00FB66D
:1004100007FCFACFE889F989808185FFF5CFCE0105
:100420000E94B301F1CFEB8DEC0FFD2FF11DE35ACC
:10043000FF4FF0829FB7F8940B8FEA89FB89808188
:100440008062CFCFCF93DF93EC01888D8823B9F002
:10045000AA89BB89E889F9898C9185FD03C08081CF
:1004600086FD0DC00FB607FCF7CF8C9185FFF2CF4C
:10047000808185FFEDCFCE010E94B301E9CFDF91EE
:10048000CF91089520E001972FEF8F3F9207D9F782
:100490000895CF92DF92EF92FF92CF93DF93E82FF0
:1004A000F0E0EF51FE4F8081823009F442C050F4F9
:1004B000813009F496C0DF91CF91FF90EF90DF90EB
:1004C000CF900895833009F460C08430A1F7809103
:1004D0001300909114000E944202C8E0D0E0809185
:1004E0001500909116000E944202E0910E00F091DA
:1004F0000F008081219799F7809117009091180043
:100500000E944202809133012091320190E00196D5
:100510008F7399272817190609F46CC0809133014D
:100520008091330190E001968F7399278093330176
:10053000C2CFC0902E01D0902F01E0903001F090FA
:1005400031010E94040122E3C20ED11CE11CF11C06
:10055000C616D706E806F90608F0ADCFE091EB0124
:10056000F091EC018085082E000C990BAA0BBB0BB7
:100570004081518162817381840F951FA61FB71F2F
:1005800080839183A283B38396CFC0903401D090AF
:100590003501E0903601F09037010E940401E2E35A
:1005A000CE0ED11CE11CF11CC616D706E806F906D2
:1005B00008F081CFE091EB01F091EC018185082EEC
:1005C000000C990BAA0BBB0B448155816681778186
:1005D000840F951FA61FB71F84839583A683B783B7
:1005E0006ACFF0E0E0E0DF91CF91FF90EF90DF90F5
:1005F000CF90099480911B00816080931B005BCF9A
:10060000FC0101900020E9F73197AF01481B590B1D
:10061000BC0181E491E00C9435018F929F92AF92DE
:10062000BF920F931F93CF93DF93CDB7DEB7A19700
:100630000FB6F894DEBF0FBECDBF19A2423008F44A
:100640004AE08E010F5D1F4F842E912CB12CA12CFE
:10065000A50194010E942108E62FB901CA01EA30E0
:10066000F4F4E05DD801EE938D01232B242B252B90
:1006700079F790E080E0109719F0CD010E94000317
:10068000A1960FB6F894DEBF0FBECDBFDF91CF911C
:100690001F910F91BF90AF909F908F900895E95C4C
:1006A000E1CF1F920F920FB60F9211242F933F9319
:1006B0008F939F93AF93BF938091390190913A01AB
:1006C000A0913B01B0913C013091380123E0230F10
:1006D0002D3758F50196A11DB11D20933801809347
:1006E000390190933A01A0933B01B0933C01809172
:1006F0003D0190913E01A0913F01B09140010196D2
:10070000A11DB11D80933D0190933E01A0933F0137
:10071000B0934001BF91AF919F918F913F912F91E5
:100720000F900FBE0F901F90189526E8230F02968A
:10073000A11DB11DD2CF1F920F920FB60F9211249F
:100740002F933F934F935F936F937F938F939F93D9
:10075000AF93BF93EF93FF9381E491E00E94B301C5
:10076000FF91EF91BF91AF919F918F917F916F9189
:100770005F914F913F912F910F900FBE0F901F905F
:1007800018951F920F920FB60F9211242F938F93EB
:100790009F93EF93FF93E0915101F091520180817B
:1007A000E0915701F091580182FD1BC0908180912A
:1007B0005A018F5F8F7320915B01821741F0E091A6
:1007C0005A01F0E0EF5BFE4F958F80935A01FF9145
:1007D000EF919F918F912F910F900FBE0F901F90CF
:1007E00018958081F4CF1F920F920FB60F921124AB
:1007F0002F933F934F935F936F937F938F939F9329
:10080000AF93BF93CF93EF93FF93C9B18091DF0173
:10081000C8238091020183FF19C0C3FD17C086E081
:100820000E944902C0930201FF91EF91CF91BF91C5
:10083000AF919F918F917F916F915F914F913F9178
:100840002F910F900FBE0F901F901895809102016D
:1008500083FDE8CFC3FFE6CF8091E701823051F4FA
:100860000E94290160932E0170932F018093300123
:10087000909331018091E7018330A1F60E94290114
:100880006093340170933501809336019093370162
:10089000C9CF1F920F920FB60F9211242F933F933F
:1008A0004F935F936F937F938F939F93AF93BF9378
:1008B000CF93EF93FF93C6B18091E001C82380915D
:1008C000010180FF4BC0C0FD49C080E00E94490289
:1008D0008091010181FF02C0C1FF64C080910101CC
:1008E00081FF64C08091010182FF02C0C2FF7EC00F
:1008F0008091010182FF7EC08091010183FF02C0CF
:10090000C3FF98C08091010183FF98C080910101CD
:1009100084FF02C0C4FFB2C08091010184FFB2C055
:100920008091010185FF02C0C5FFCCC0809101010B
:1009300085FFCCC0C0930101FF91EF91CF91BF9192
:10094000AF919F918F917F916F915F914F913F9167
:100950002F910F900FBE0F901F901895809101015D
:1009600080FDB6CFC0FFB4CF8091E101823051F459
:100970000E94290160932E0170932F018093300112
:10098000909331018091E101833009F0A1CF0E9461
:10099000290160933401709335018093360190935F
:1009A000370196CF81E00E9449029CCFC1FF9ACFC8
:1009B0008091E201823051F40E94290160932E015E
:1009C00070932F0180933001909331018091E20167
:1009D000833009F087CF0E9429016093340170931E
:1009E000350180933601909337017CCF82E00E94DD
:1009F000490282CFC2FF80CF8091E301823051F45F
:100A00000E94290160932E0170932F018093300181
:100A1000909331018091E301833009F06DCF0E9402
:100A200029016093340170933501809336019093CE
:100A3000370162CF83E00E94490268CFC3FF66CFCF
:100A40008091E401823051F40E94290160932E01CB
:100A500070932F0180933001909331018091E401D4
:100A6000833009F053CF0E942901609334017093C1
:100A70003501809336019093370148CF84E00E947E
:100A800049024ECFC4FF4CCF8091E501823051F432
:100A90000E94290160932E0170932F0180933001F1
:100AA000909331018091E501833009F039CF0E94A4
:100AB000290160933401709335018093360190933E
:100AC00037012ECF85E00E94490234CFC5FF32CFD7
:100AD0008091E601823051F40E94290160932E0139
:100AE00070932F0180933001909331018091E60142
:100AF000833009F01FCF0E94290160933401709365
:100B00003501809336019093370114CF1F920F92D5
:100B10000FB60F9211242F933F934F935F936F93D0
:100B20007F938F939F93AF93BF93CF93EF93FF9355
:100B3000C3B18091DE01C8238091000181FF2DC0E7
:100B4000C1FD2BC087E00E9449028091000182FF15
:100B500002C0C2FF54C08091000182FF54C0809146
:100B6000000183FF02C0C3FF7CC08091000182FFAF
:100B70007CC0C0930001FF91EF91CF91BF91AF91E5
:100B80009F918F917F916F915F914F913F912F91A5
:100B90000F900FBE0F901F9018958091000181FD5E
:100BA000D4CFC1FFD2CF8091E801823051F40E94AE
:100BB000040160932E0170932F0180933001909374
:100BC00031018091E801833051F40E940401609367
:100BD00034017093350180933601909337018091F1
:100BE000E801813009F0B1CF0E94290160932A0108
:100BF00070932B0180932C0190932D01A6CF88E058
:100C00000E944902ACCFC2FFAACF8091E901823095
:100C100051F40E94040160932E0170932F01809380
:100C20003001909331018091E901833051F40E94A9
:100C300004016093340170933501809336019093E1
:100C400037018091E901813009F089CF0E942901A3
:100C500060932A0170932B0180932C0190932D01B6
:100C60007ECF89E00E94490284CFC2FF82CF80916B
:100C7000EA01823051F40E94040160932E017093C6
:100C80002F0180933001909331018091EA018330EC
:100C900051F40E94040160933401709335018093F4
:100CA0003601909337018091EA01813009F061CFDC
:100CB0000E94290160932A0170932B0180932C01DB
:100CC00090932D0156CFCF93DF93E1E4F1E01382AF
:100CD000128288EE93E0A0E0B0E084839583A6833F
:100CE000B78387E091E09183808385EC90E09587DE
:100CF000848784EC90E09787868780EC90E0918BE6
:100D0000808B81EC90E0938B828B82EC90E0958BD2
:100D1000848B86EC90E0978B868B118E128E138ECF
:100D2000148E62E080E10E94D30062E08AE00E94BB
:100D3000D300ECE6F0E0808184608083E8E6F0E0B8
:100D4000808182608083A1EEB1E082E012968C9374
:100D500012978091E00184608093E001CBE6D0E0BF
:100D600088818460888380818160808383E0189695
:100D70008C938091DE0184608093DE01EDEEF1E0E2
:100D800010821182128213821482158216821782B7
:100D9000F093EC01E093EB0181E08087818761E0D3
:100DA00087E00E94D30061E088E00E94D30061E008
:100DB00082E00E94D30061E084E0DF91CF910C9447
:100DC000D300789484B5826084BD84B5816084BD8D
:100DD00085B5826085BD85B5816085BD80916E00D9
:100DE000816080936E00109281008091810082600A
:100DF0008093810080918100816080938100809147
:100E000080008160809380008091B1008460809335
:100E1000B1008091B00081608093B00080917A0031
:100E2000846080937A0080917A00826080937A0057
:100E300080917A00816080937A0080917A00806846
:100E400080937A001092C100E0915101F09152011B
:100E500082E08083E0914D01F0914E011082E0919B
:100E60004F01F091500180E1808310925901E0918F
:100E70005501F091560186E08083E0915301F09195
:100E80005401808180618083E0915301F09154018D
:100E9000808188608083E0915301F09154018081CA
:100EA00080688083E0915301F091540180818F7DAF
:100EB00080831092ED011092EE011092EF011092DA
:100EC000F0011092F1011092F2011092F3011092D0
:100ED000F40109EA10E0C5EFD0E085EFD82ECC246C
:100EE000CA9490E0E92E90E0F92E85E191E00E940D
:100EF000000385E291E00E9400038090F101909050
:100F0000F201A090F301B090F4014AE0C501B401F0
:100F1000B7FE0DC06DE281E491E00E94D501662725
:100F20007727CB01681979098A099B094AE00E9451
:100F30000D0388E291E00E9400038090ED01909003
:100F4000EE01A090EF01B090F0014AE0C501B401BC
:100F5000B7FE0DC06DE281E491E00E94D5016627E5
:100F60007727CB01681979098A099B094AE00E9411
:100F70000D0388E291E00E94000385E291E00E9467
:100F8000000360E082E00E94870061E084E00E944C
:100F9000870061E085E00E94D300F80184918330EE
:100FA000B1F148F48130B9F0823061F161E085E05F
:100FB0000E94870014C08730A1F18830D1F18430BD
:100FC000A9F780918000806280938000D0938B008D
:100FD000C0938A0004C084B5806884BDD7BCE0910A
:100FE000EB01F091EC01309709F0C086E114F104B7
:100FF00009F47BCF0E949F01882309F476CF0E94D9
:10100000000073CF84B5806284BDD8BCE8CF8091E6
:101010008000806880938000D0938900C09388000E
:10102000DECF8091B00080688093B000D092B30092
:10103000D6CF8091B00080628093B000D092B4008F
:10104000CECFA1E21A2EAA1BBB1BFD010DC0AA1F09
:10105000BB1FEE1FFF1FA217B307E407F50720F021
:10106000A21BB30BE40BF50B661F771F881F991F9C
:101070001A9469F760957095809590959B01AC01E5
:10108000BD01CF010895EE0FFF1F0590F491E02DF3
:061090000994F894FFCF63
:101096000E3F0800000000D50135016201220293CF
:1010A6000171018501456E636F6465722056616C3E
:0A10B6007565733A000D0A00090089
:00000001FF
