:100000000C945D000C9485000C9485000C942F06D4
:100010000C94F2040C949C040C9485000C948500C0
:100020000C9485000C9485000C9485000C9485003C
:100030000C9485000C9485000C9485000C9485002C
:100040000C94FA030C9485000C946A040C944404F8
:100050000C9485000C9485000C9485000C9485000C
:100060000C9485000C9485000000000024002700FB
:100070002A0000000000250028002B0004040404CE
:100080000404040402020202020203030303030342
:10009000010204081020408001020408102001021F
:1000A00004081020000000080002010000030407FB
:1000B00000000000000000000C0711241FBECFEF5D
:1000C000D8E0DEBFCDBF11E0A0E0B1E0E6E7F1E1AE
:1000D00002C005900D92AA32B107D9F721E0AAE239
:1000E000B1E001C01D92A73FB207E1F710E0CDE5F6
:1000F000D0E004C02197FE010E94B308CC35D1079F
:10010000C9F70E948A070C94B9080C94000090E08B
:10011000FC01EC55FF4F2491FC01E057FF4F349157
:10012000FC01E458FF4FE491EE23C9F0222339F09B
:10013000233001F1A8F4213019F1223029F1F0E047
:10014000EE0FFF1FEE58FF4FA591B4918FB7F894B3
:10015000EC91611126C030953E233C938FBF0895EA
:100160002730A9F02830C9F0243049F78091800069
:100170008F7D03C0809180008F7780938000DFCFD8
:1001800084B58F7784BDDBCF84B58F7DFBCF809125
:10019000B0008F778093B000D2CF8091B0008F7D78
:1001A000F9CF3E2BDACFCF93DF9390E0FC01E057FD
:1001B000FF4F249184589F4FFC0184918823D1F0F4
:1001C00090E0880F991FFC01E859FF4FA591B49169
:1001D000FC01EE58FF4FC591D491623071F49FB786
:1001E000F8943C91822F809583238C93E8812E2B69
:1001F00028839FBFDF91CF9108958FB7F894EC913A
:100200002E2B2C938FBFF6CF1F93CF93DF93182FF6
:10021000EB0161E00E94D300209739F460E0812F68
:10022000DF91CF911F910C948700CF3FD10511F43E
:1002300061E0F5CFE12FF0E0EC55FF4FE491E330C2
:1002400031F140F4E130B1F0E230E1F0C038D105F5
:100250007CF7E4CFE73029F1E83059F1E430B1F729
:1002600080918000806280938000D0938B00C09347
:100270008A0004C084B5806884BDC7BDDF91CF917A
:100280001F91089584B5806284BDC8BDF7CF809169
:100290008000806880938000D0938900C09388009C
:1002A000EDCF8091B00080688093B000C093B30020
:1002B000E5CF8091B00080628093B000C093B4001D
:1002C000DDCFCF93C82F61E087E00E94870060E018
:1002D00088E00E9487006C2F70E086E00E94040195
:1002E000E091EB01F091EC01309711F081E0818712
:1002F000CF910895CF93C82F61E082E00E948700DC
:1003000060E084E00E9487006C2F70E085E00E942E
:100310000401E091EB01F091EC01309711F081E0E4
:100320008087CF91089561E087E00E94870061E0B7
:1003300088E00E94870070E060E086E00C94040191
:1003400061E082E00E94870061E084E00E94870013
:1003500070E060E085E00C9404013FB7F894809170
:100360003D0190913E01A0913F01B091400126B521
:10037000A89B05C02F3F19F00196A11DB11D3FBFDD
:10038000BA2FA92F982F8827BC01CD01620F711DAC
:10039000811D911D42E0660F771F881F991F4A95A6
:1003A000D1F708952FB7F8946091390170913A010F
:1003B00080913B0190913C012FBF0895AF92BF9275
:1003C000CF92DF92EF92FF920F931F93CF93DF9321
:1003D0006C017B018B01040F151FEB015E01AE1850
:1003E000BF08C017D10759F06991D601ED91FC9172
:1003F0000190F081E02DC6010995892B79F7C5019F
:10040000DF91CF911F910F91FF90EF90DF90CF90F0
:10041000BF90AF900895FC01538D448D252F30E09F
:10042000842F90E0821B930B541710F0CF96089501
:1004300001970895FC01918D828D981761F0A28D2E
:10044000AE0FBF2FB11D5D968C91928D9F5F9F73F4
:10045000928F90E008958FEF9FEF0895FC01918DAA
:10046000828D981731F0828DE80FF11D858D90E017
:1004700008958FEF9FEF0895FC01918D228D892FB4
:1004800090E0805C9F4F821B91098F73992708959C
:1004900081E491E00E943C0221E0892B09F420E0F4
:1004A000822F089580E090E0892B29F00E94480275
:1004B00081110C9400000895FC01A48DA80FB92FA0
:1004C000B11DA35ABF4F2C91848D90E001968F737C
:1004D0009927848FA689B7892C93A089B1898C919B
:1004E000837080648C93938D848D981306C00288EA
:1004F000F389E02D80818F7D80830895EF92FF92B4
:100500000F931F93CF93DF93EC0181E0888F9B8D36
:100510008C8D98131AC0E889F989808185FF15C0F0
:100520009FB7F894EE89FF896083E889F989808113
:100530008370806480839FBF81E090E0DF91CF91E2
:100540001F910F91FF90EF900895F62E0B8D10E004
:100550000F5F1F4F0F731127E02E8C8D8E110CC073
:100560000FB607FCFACFE889F989808185FFF5CFBE
:10057000CE010E945C02F1CFEB8DEC0FFD2FF11D3F
:10058000E35AFF4FF0829FB7F8940B8FEA89FB89FB
:1005900080818062CFCFCF93DF93EC01888D882359
:1005A000B9F0AA89BB89E889F9898C9185FD03C0D6
:1005B000808186FD0DC00FB607FCF7CF8C9185FFBB
:1005C000F2CF808185FFEDCFCE010E945C02E9CFA2
:1005D000DF91CF91089520E001972FEF8F3F920791
:1005E000D9F70895CF92DF92EF92FF92CF93DF93E6
:1005F000E82FF0E0EF51FE4F8081823009F442C0D5
:1006000050F4813009F496C0DF91CF91FF90EF90C4
:10061000DF90CF900895833009F460C08430A1F753
:1006200080911300909114000E94EB02C8E0D0E08A
:1006300080911500909116000E94EB02E0910E004F
:10064000F0910F008081219799F780911700909188
:1006500018000E94EB02809133012091320190E05A
:1006600001968F7399272817190609F46CC0809199
:1006700033018091330190E001968F739927809325
:100680003301C2CFC0902E01D0902F01E0903001F5
:10069000F09031010E94AD0122E3C20ED11CE11C99
:1006A000F11CC616D706E806F90608F0ADCFE091B2
:1006B000EB01F091EC018085082E000C990BAA0B40
:1006C000BB0B4081518162817381840F951FA61FEE
:1006D000B71F80839183A283B38396CFC0903401E8
:1006E000D0903501E0903601F09037010E94AD01C5
:1006F000E2E3CE0ED11CE11CF11CC616D706E806BB
:10070000F90608F081CFE091EB01F091EC018185D1
:10071000082E000C990BAA0BBB0B448155816681F6
:100720007781840F951FA61FB71F84839583A683A7
:10073000B7836ACFF0E0E0E0DF91CF91FF90EF90D8
:10074000DF90CF90099480911B00816080931B0003
:100750005BCFFC0101900020E9F73197AF01481B06
:10076000590BBC0181E491E00C94DE018F929F92C1
:10077000AF92BF920F931F93CF93DF93CDB7DEB7A6
:10078000A1970FB6F894DEBF0FBECDBF19A24230BD
:1007900008F44AE08E010F5D1F4F842E912CB12C7E
:1007A000A12CA50194010E949108E62FB901CA016C
:1007B000EA30F4F4E05DD801EE938D01232B242B75
:1007C000252B79F790E080E0109719F0CD010E9479
:1007D000A903A1960FB6F894DEBF0FBECDBFDF917F
:1007E000CF911F910F91BF90AF909F908F900895E0
:1007F000E95CE1CF1F920F920FB60F9211242F9355
:100800003F938F939F93AF93BF93809139019091C2
:100810003A01A0913B01B0913C013091380123E0B5
:10082000230F2D3758F50196A11DB11D20933801D6
:100830008093390190933A01A0933B01B0933C011E
:1008400080913D0190913E01A0913F01B091400106
:100850000196A11DB11D80933D0190933E01A0938F
:100860003F01B0934001BF91AF919F918F913F9114
:100870002F910F900FBE0F901F90189526E8230F11
:100880000296A11DB11DD2CF1F920F920FB60F92EB
:1008900011242F933F934F935F936F937F938F9385
:1008A0009F93AF93BF93EF93FF9381E491E00E94F6
:1008B0005C02FF91EF91BF91AF919F918F917F91DA
:1008C0006F915F914F913F912F910F900FBE0F90BD
:1008D0001F9018951F920F920FB60F9211242F930D
:1008E0008F939F93EF93FF93E0915101F091520109
:1008F0008081E0915701F091580182FD1BC09081E9
:1009000080915A018F5F8F7320915B01821741F0B4
:10091000E0915A01F0E0EF5BFE4F958F80935A0112
:10092000FF91EF919F918F912F910F900FBE0F909C
:100930001F9018958081F4CF1F920F920FB60F92DF
:1009400011242F933F934F935F936F937F938F93D4
:100950009F93AF93BF93CF93EF93FF93C9B18091D0
:10096000DF01C8238091020183FF19C0C3FD17C0B6
:1009700086E00E94F202C0930201FF91EF91CF91B5
:10098000BF91AF919F918F917F916F915F914F91A7
:100990003F912F910F900FBE0F901F90189580914F
:1009A000020183FDE8CFC3FFE6CF8091E7018230EB
:1009B00051F40E94D20160932E0170932F01809315
:1009C0003001909331018091E7018330A1F60E94BC
:1009D000D201609334017093350180933601909376
:1009E0003701C9CF1F920F920FB60F9211242F9388
:1009F0003F934F935F936F937F938F939F93AF93A7
:100A0000BF93CF93EF93FF93C6B18091E001C823CA
:100A10008091010180FF4BC0C0FD49C080E00E9471
:100A2000F2028091010181FF02C0C1FF64C0809188
:100A3000010181FF64C08091010182FF02C0C2FFF9
:100A40007EC08091010182FF7EC08091010183FF01
:100A500002C0C3FF98C08091010183FF98C08091BC
:100A6000010184FF02C0C4FFB2C08091010184FF74
:100A7000B2C08091010185FF02C0C5FFCCC080914A
:100A8000010185FFCCC0C0930101FF91EF91CF918F
:100A9000BF91AF919F918F917F916F915F914F9196
:100AA0003F912F910F900FBE0F901F90189580913E
:100AB000010180FDB6CFC0FFB4CF8091E10182304B
:100AC00051F40E94D20160932E0170932F01809304
:100AD0003001909331018091E101833009F0A1CF81
:100AE0000E94D201609334017093350180933601E6
:100AF0009093370196CF81E00E94F2029CCFC1FF14
:100B00009ACF8091E201823051F40E94D201609329
:100B10002E0170932F0180933001909331018091C9
:100B2000E201833009F087CF0E94D2016093340143
:100B30007093350180933601909337017CCF82E02A
:100B40000E94F20282CFC2FF80CF8091E301823007
:100B500051F40E94D20160932E0170932F01809373
:100B60003001909331018091E301833009F06DCF22
:100B70000E94D20160933401709335018093360155
:100B80009093370162CF83E00E94F20268CFC3FFE7
:100B900066CF8091E401823051F40E94D2016093CB
:100BA0002E0170932F018093300190933101809139
:100BB000E401833009F053CF0E94D20160933401E5
:100BC00070933501809336019093370148CF84E0CC
:100BD0000E94F2024ECFC4FF4CCF8091E5018230DB
:100BE00051F40E94D20160932E0170932F018093E3
:100BF0003001909331018091E501833009F039CFC4
:100C00000E94D201609334017093350180933601C4
:100C1000909337012ECF85E00E94F20234CFC5FFBA
:100C200032CF8091E601823051F40E94D20160936C
:100C30002E0170932F0180933001909331018091A8
:100C4000E601833009F01FCF0E94D2016093340186
:100C500070933501809336019093370114CF1F9222
:100C60000F920FB60F9211242F933F934F935F93E0
:100C70006F937F938F939F93AF93BF93CF93EF9394
:100C8000FF93C3B18091DE01C8238091000181FFF1
:100C90002DC0C1FD2BC087E00E94F20280910001AF
:100CA00082FF02C0C2FF54C08091000182FF54C085
:100CB0008091000183FF02C0C3FF7CC080910001CE
:100CC00082FF7CC0C0930001FF91EF91CF91BF9153
:100CD000AF919F918F917F916F915F914F913F91D4
:100CE0002F910F900FBE0F901F90189580910001CB
:100CF00081FDD4CFC1FFD2CF8091E801823051F481
:100D00000E94AD0160932E0170932F0180933001FA
:100D1000909331018091E801833051F40E94AD013C
:100D200060933401709335018093360190933701BD
:100D30008091E801813009F0B1CF0E94D201609327
:100D40002A0170932B0180932C0190932D01A6CF43
:100D500088E00E94F202ACCFC2FFAACF8091E901E5
:100D6000823051F40E94AD0160932E0170932F01E7
:100D700080933001909331018091E901833051F4E7
:100D80000E94AD0160933401709335018093360168
:100D9000909337018091E901813009F089CF0E9459
:100DA000D20160932A0170932B0180932C019093C0
:100DB0002D017ECF89E00E94F20284CFC2FF82CF54
:100DC0008091EA01823051F40E94AD0160932E01BE
:100DD00070932F0180933001909331018091EA014B
:100DE000833051F40E94AD0160933401709335015A
:100DF00080933601909337018091EA01813009F0A8
:100E000061CF0E94D20160932A0170932B018093DD
:100E10002C0190932D0156CFCF93DF93E1E4F1E0C5
:100E20001382128288EE93E0A0E0B0E08483958381
:100E3000A683B78387E091E09183808385EC90E07F
:100E40009587848784EC90E09787868780EC90E094
:100E5000918B808B81EC90E0938B828B82EC90E085
:100E6000958B848B86EC90E0978B868B118E128EFF
:100E7000138E148E62E080E10E94D30062E08AE06B
:100E80000E94D300ECE6F0E0808184608083E8E695
:100E9000F0E0808182608083A1EEB1E082E0129672
:100EA0008C9312978091E00184608093E001CBE6FF
:100EB000D0E088818460888380818160808383E042
:100EC00018968C938091DE0184608093DE01EDEEB4
:100ED000F1E010821182128213821482158216822E
:100EE0001782F093EC01E093EB0181E0808781872A
:100EF00061E087E00E94D30061E088E00E94D300B7
:100F000061E082E00E94D30061E084E0DF91CF9154
:100F10000C94D300789484B5826084BD84B58160DC
:100F200084BD85B5826085BD85B5816085BD8091B4
:100F30006E00816080936E0010928100809181002C
:100F40008260809381008091810081608093810024
:100F5000809180008160809380008091B1008460E6
:100F60008093B1008091B00081608093B000809147
:100F70007A00846080937A0080917A008260809306
:100F80007A0080917A00816080937A0080917A0063
:100F9000806880937A001092C100E0915101F09135
:100FA000520182E08083E0914D01F0914E01108268
:100FB000E0914F01F091500180E18083109259013E
:100FC000E0915501F091560186E08083E091530154
:100FD000F0915401808180618083E0915301F09110
:100FE0005401808188608083E0915301F091540125
:100FF000808180688083E0915301F0915401808169
:101000008F7D80831092ED011092EE011092EF011E
:101010001092F0011092F1011092F2011092F3017E
:101020001092F401C0E0D0E085E191E00E94A903B4
:1010300085E291E00E94A903C090F101D090F201F5
:10104000E090F301F090F4014AE0C701B601F7FE29
:101050000DC06DE281E491E00E947E026627772751
:10106000CB016C197D098E099F094AE00E94B603E5
:1010700088E291E00E94A903C090ED01D090EE01BA
:10108000E090EF01F090F0014AE0C701B601F7FEF1
:101090000DC06DE281E491E00E947E026627772711
:1010A000CB016C197D098E099F094AE00E94B603A5
:1010B00088E291E00E94A90385E291E00E94A903E1
:1010C0002091F1013091F2018091ED019091EE01BA
:1010D00097FF03C091958195910928173907ACF4C2
:1010E0000E94A0010E9493018BEE0E947A018FEF73
:1010F0000E946101209709F497CF0E94480288233B
:1011000009F492CF0E9400008FCF8217930794F7C3
:101110000E94A0010E9493018FEF0E947A018BEE42
:10112000E7CFA1E21A2EAA1BBB1BFD010DC0AA1F0F
:10113000BB1FEE1FFF1FA217B307E407F50720F040
:10114000A21BB30BE40BF50B661F771F881F991FBB
:101150001A9469F760957095809590959B01AC0104
:10116000BD01CF010895EE0FFF1F0590F491E02D12
:061170000994F894FFCF82
:101176000E3F08000000007E02DE010B02CB023C9F
:10118600021A022E02456E636F6465722056616C08
:0A1196007565733A000D0A000900A8
:00000001FF
